:020000040800F2
:10000000D0B90024E102000899810008597800085D
:100010009181000841050008D9AC000800000000EB
:10002000000000000000000000000000A18800089F
:10003000490C00080000000031840008D98800083D
:10004000FB020008FB020008FB020008FB0200089C
:10005000FB020008FB020008FB020008FB0200088C
:10006000FB020008FB020008FB02000881050008F3
:1000700091050008A1050008B1050008C1050008A8
:10008000D1050008E1050008FB020008610C00082A
:10009000710C0008FB020008FB020008FB020008CC
:1000A000FB020008918A0008FB020008FB0200081E
:1000B000A18A0008FB020008FB020008FB020008FE
:1000C000FB020008FB020008FB0200082987000869
:1000D000FB020008819B0008A19B0008C19B00084F
:1000E000FB020008FB02000800000000FB02000801
:1000F000FB020008FB020008FB020008F1050008F3
:10010000FB020008FB020008FB020008FB020008DB
:10011000FB020008FB020008FB020008FB020008CB
:10012000010600081106000821060008FB0200086D
:10013000FB020008FB020008FB020008FB020008AB
:1001400000000000000000000000000000000000AF
:10015000FB020008FB020008FB020008E19B00080C
:10016000FB020008FB020008F1810008E1810008A1
:10017000FB02000801820008FB02000800000000EA
:10018000FB020008FB020008FB020008FB0200085B
:10019000FB020008FB020008FB020008FB0200084B
:1001A000FB020008FB020008FB0200080000000040
:1001B000FB020008FB020008FB020008FB0200082B
:1001C000FB020008FB020008000000000000000025
:1001D0000000000000000000FB020008000000001A
:1001E000000000000000000000000000000000000F
:1001F0000000000000000000FB020008FB020008F5
:10020000FB020008FB02000800000000FB020008DF
:10021000FB020008FB020008FB020008FB020008CA
:10022000FB02000800000000FB02000800000000C4
:10023000FB020008FB02000800000000FB020008AF
:10024000FB020008FB020008FB020008FB0200089A
:10025000FB020008FB020008FB020008FB0200088A
:10026000FB020008FB020008FB020008FB0200087A
:10027000FB020008FB020008FB020008000000006F
:10028000FB020008FB020008FB020008FB0200085A
:1002900000000000FB020008FB0200080000000054
:1002A00000000000FB020008FB020008FB0200083F
:1002B000619B0008FB020008FB020008810C00089B
:1002C000FB020008FB020008FB020008DFF80CD06C
:1002D00000F0BEF800480047090A0108D0B9002420
:1002E0000648804706480047FEE7FEE7FEE7FEE7D0
:1002F000FEE7FEE7FEE7FEE7FEE7FEE7C989000846
:10030000CD0200082DE9F05F0546002092469B468D
:1003100088460646814640241BE02846414647461B
:10032000224600F05AF853465A46C01A914110D35B
:1003300011461846224600F041F82D1A67EB0108D5
:100340004F4622460120002100F038F817EB000943
:100350004E41201EA4F10104DFDC484631462A4606
:100360004346BDE8F09F40EA01039B0703D009E044
:1003700008C9121F08C0042AFAD203E011F8013B91
:1003800000F8013B521EF9D27047D2B201E000F8EA
:10039000012B491EFBD270470022F6E710B5134629
:1003A0000A4604461946FFF7F0FF204610BD421CDE
:1003B00010F8011B0029FBD1801A7047202A04DBAA
:1003C000203A00FA02F1002070479140C2F1200368
:1003D00020FA03F3194390407047202A04DB203AA7
:1003E00021FA02F00021704721FA02F3D040C2F155
:1003F00020029140084319467047F0B400F00042D3
:1004000021F0004120F00040CE0DC30DC1F31601D4
:1004100041F40001C0F316004C42154640F40000C0
:10042000761E09E010EB440002D582F00042404203
:100430008842F7D840005B1EB342F9DA18B1F0BC2D
:10044000002100F020B82846F0BC7047002070471B
:10045000064C074D06E0E06840F0010394E8070011
:1004600098471034AC42F6D3FFF734FF608301089D
:10047000808301080029A8BF7047401C490008BFBD
:1004800020F00100704710B4B0FA80FC00FA0CF0C4
:1004900050EA010404BF10BC704749B1CCF12004FC
:1004A00021FA04F411FA0CF118BF01212143084389
:1004B000A3EB0C01CB1D4FEA00614FEA102042BFB5
:1004C000002010BC704700EBC35010440029A4BFAB
:1004D00010BC7047401C490008BF20F0010010BC50
:1004E000704770B58D1810F8014B14F0030201D15C
:1004F00010F8012B231106D110F8013B03E010F88E
:10050000016B01F8016B521EF9D1ABB110F8012B50
:1005100004F00C048A1A0C2C03D0A2EB84129B1C4E
:1005200008E010F8014BA2EB0422F8E712F8014BA7
:1005300001F8014B5B1EF9D5A942D4D3002070BD50
:10054000FEE70000000000000A46014641F2246078
:10055000C2F20040D0F8BC02D0F8140200281CBF40
:100560000120704710B541F22464C2F200442046D5
:1005700009F046FB2046BDE8104009F04DBB0000E5
:1005800041F64C30C2F2004001F006BA0000000013
:1005900041F6C430C2F2004001F0FEB90000000094
:1005A00041F65C20C2F2004001F0F6B90000000004
:1005B00041F6D420C2F2004001F0EEB90000000084
:1005C00041F6A450C2F2004001F0E6B9000000007C
:1005D00041F63C40C2F2004001F0DEB900000000EC
:1005E00041F6B440C2F2004001F0D6B9000000006C
:1005F00041F62C50C2F2004001F0CEB900000000DC
:1006000041F66C10C2F2004001F0C6B900000000D3
:1006100041F6E410C2F2004001F0BEB90000000053
:1006200041F6F400C2F2004001F0B6B9000000004B
:100630000168B722C4F20202914213DD40F2574230
:10064000C4F2020291421EDC40F22742C4F20202CE
:10065000914233DCB822C4F2020291424AD040F205
:10066000104243E05722C4F2020291421ADD87226F
:10067000C4F2020291422ADC5822C4F202029142E0
:1006800038D0702232E040F28742C4F20202914236
:1006900024DC40F25842C4F2020291422AD040F2D5
:1006A000704223E01022C4F2020291421EBF2822AF
:1006B000C4F2020291421DD0402217E040F22842CB
:1006C000C4F20202914215D040F240420EE088226C
:1006D000C4F2020291420DD0A02207E040F2A042F3
:1006E000C4F20202914205D040F28842C4F20202F2
:1006F00091421BD1D0F800C06FF00F0151FA8CF37A
:100700004AF6AB21CAF6AA21A3FB0112C2F30211D9
:100710000CA2515CC16540F2FF312CEA01015F2B54
:1007200088BF41F00401816508467047D0F800C0D9
:1007300040F2B843C4F202039942DDD02CF0FF012D
:10074000F1E700BF000610160006101600000000BA
:1007500010B5026845F29441C5F6020145F24343E3
:10076000C5F602039A420EDD45F26B43C5F602035D
:100770009A4217DC45F24443C5F602039A421DD063
:1007800045F2584316E045F20843C5F602039A4283
:100790001EBF45F21C43C5F602039A420ED045F235
:1007A000304307E045F28043C5F602039A4205D084
:1007B00045F26C43C5F602039A4217D10378A3F1C0
:1007C00008024CF6CD43CCF6CC43A2FB03231B0915
:1007D00001F57B7201F55B7101EB830103F01F03EF
:1007E000012404FA03F360300EC010BD03788A427E
:1007F000E5D0A3F110014AF6AB23CAF6AA23A1FB68
:10080000031C4FF0080E4FEA1C1140F20F44C4F2D3
:100810000204A2420B4688BF0EEB1C13AA34A2426C
:1008200028BF0B4640F60001C4F2020101F180022C
:10083000D2E700000000000001790139072988BFD4
:10084000704710B502684FF0010E45F6001CC5F662
:10085000020C40F60013C4F2020345F24344C5F60D
:100860000204A2420EDD45F26B44C5F60204A24228
:1008700017DC45F24444C5F60204A24226D045F2F4
:10088000584416E045F20844C5F60204A2421EBFD1
:1008900045F21C44C5F60204A24217D045F230448A
:1008A00007E045F26C44C5F60204A2420ED045F2C0
:1008B0008044C5F60204A24208D04AF66C34CAF25B
:1008C000FD742244B2FA82F24FEA521EBEF1000FCA
:1008D00003F1400218BF634603EB8103BEF1000F32
:1008E00018BF0CF14002012404FA01F1C0E91B32E7
:1008F0004167BDE8104070478269816AB2F5005FC8
:1009000006D06AB9022912D0012915D0D9B90EE052
:10091000032918D8DFE801F0020B0210012070470C
:1009200003293CBF012070471CBF0020704790F88E
:100930002F0000F001007047C06AA0F1C070B0FA4B
:1009400080F0400970470020704700000000000060
:10095000B0B50468D0F858C040F26F4EC4F2020E31
:10096000744516DC9F25C4F20205AC422CDC5725E9
:10097000C4F20205AC424FDC1025C4F20205AC42C1
:100980001EBF2825C4F20205AC4200F08580402538
:100990006BE045F22F45C5F60205AC4227DC40F27C
:1009A000B745C4F20205AC4242DC40F27045C4F2E5
:1009B0000205AC421EBF40F28845C4F20205AC42BB
:1009C0006AD040F2A04550E040F22745C4F202054B
:1009D000AC423CDCA025C4F20205AC421EBFB825E7
:1009E000C4F20205AC4257D040F210453DE045F25A
:1009F0006B45C5F60205AC423CDC45F23045C5F618
:100A00000205AC421EBF45F24445C5F60205AC42A4
:100A100042D045F258453BE05825C4F20205AC42AD
:100A20001EBF7025C4F20205AC4235D088251CE0FB
:100A300040F2B845C4F20205AC421EBF45F208457B
:100A4000C5F60205AC4227D045F21C4520E040F235
:100A50002845C4F20205AC421EBF40F24045C4F234
:100A60000205AC4218D040F25845C4F20205AC422F
:100A700012D01AE045F26C45C5F60205AC421EBF25
:100A800045F29445C5F60205AC4205D045F28045D5
:100A9000C5F60205AC4208D1D0E919456560C46EBF
:100AA000002C1CBFD0E91C4565600468744515DC4A
:100AB0009F25C4F20205AC422BDC5725C4F2020587
:100AC000AC424EDC1025C4F20205AC421EBF282504
:100AD000C4F20205AC4271D040256BE045F22F45CF
:100AE000C5F60205AC4227DC40F2B745C4F2020568
:100AF000AC4242DC40F27045C4F20205AC421EBF7B
:100B000040F28845C4F20205AC4257D040F2A045FD
:100B100050E040F22745C4F20205AC423CDCA0257F
:100B2000C4F20205AC421EBFB825C4F20205AC42B5
:100B300044D040F210453DE045F26B45C5F6020554
:100B4000AC4256DC45F23045C5F60205AC421EBF4C
:100B500045F24445C5F60205AC425DD045F2584524
:100B600055E05825C4F20205AC421EBF7025C4F200
:100B70000205AC4222D088251CE040F2B845C4F200
:100B80000205AC421AD045F20845C5F60205AC4252
:100B900042D045F21C453AE040F22845C4F2020535
:100BA000AC421EBF40F24045C4F20205AC4205D043
:100BB00040F25845C4F20205AC4242D1C56D05F081
:100BC0001F053F2404FA05F5CCF8085005682C6889
:100BD00024F480242C6005686B6003688568402DD0
:100BE0000D4608BF15469D6008BF0A460068C260F2
:100BF000B0BD45F26C45C5F60205AC421EBF45F2DC
:100C00008045C5F60205AC4206D045F29445C5F6CE
:100C10000205AC4218BFB0BDC56D05F01F0501242B
:100C200004FA05F5CCF8045005686B600368856824
:100C3000402D0D4608BF15469D6008BF0A46006856
:100C4000C260B0BD0000000070470000000000005E
:100C5000EFF3108072B600BFFEE700000000000056
:100C600041F63060C2F2004002F04EBB00000000CE
:100C700041F6D060C2F2004002F046BB0000000026
:100C800041F67070C2F2004002F03EBB000000006E
:100C90000168426BD1F884C04FF6FC732CEA030361
:100CA00043EA8203C1F884300168D1F88430D0F877
:100CB00038C023F47F0343EA0C43C1F88430016851
:100CC000836B1A44D1F888306FF38F0343EA8203B1
:100CD000C1F888300168D1F88830D0F83CC023F4DE
:100CE000FE0343EA0C43C1F888300168C36B02EB92
:100CF0004302D1F8A0306FF38F0343EA8203C1F8B7
:100D0000A0300168D1F8A030D0F840C023F4FE0331
:100D100043EA0C43C1F8A0300168D0E910C303FBDB
:100D20000C22D1F8B0306FF38F0343EA8203C1F88D
:100D3000B0300168D1F8B030D0F848C023F4FE03D9
:100D400043EA0C43C1F8B030D0F800C0D0E912310A
:100D500001FB0321DCF8AC206FF38F0242EA810231
:100D60000368C3F8AC20D0F800C0D0E9143202FB0D
:100D70000311DCF8F0206FF38F0242EA810203686E
:100D8000C3F8F0200268D2F8F020D0F800C0836DDC
:100D900022F47C1242EA0342CCF8F0200268836D10
:100DA00001EB4301D2F8C0206FF38F0242EA8101C8
:100DB0000268C2F8C0100168D1F8C0100268C36DA3
:100DC00021F47C1141EA0341C2F8C0100168D1F856
:100DD000C0100268036E21F07C5141EA0361C2F841
:100DE000C010416B4AF60042C4F2000202EB8101DE
:100DF000C166826B01EB82010167C26B01EBC2012C
:100E00004167D0E910235A4301EB82018167D0E9A1
:100E100012235A4301EB8201C167D0E914235A43DC
:100E200001EB8201C0F88010826D01EBC201C0F8B5
:100E30008410C26D836E5A4301EB8201C0F88810A2
:100E4000026E836E5A4301EB8201C0F890104DF29E
:100E5000FD32C4F2000291420BD3D0F89C1041F055
:100E60002001C0F89C10032180F898100121084649
:100E70007047C26ED0F890108A4222BF0021084607
:100E800070474FF0000100BF42F8041BD0F89030CB
:100E90009A42F9D3084670472DE9F043D1E900CED4
:100EA000D1E90248D1E90469D1E9065734434CEA53
:100EB000040646F08046BEF1000F08BF44EA8C46A7
:100EC000846ED0F8840063430C6A40F8236000EB22
:100ED000830047EA04632B4343EA090343EA080318
:100EE0004360CB68B3F5803F38BFBDE8F08300F1C5
:100EF00008004FF0000347F6C20CC0F6010C00BF1B
:100F0000D758C750CF891CF807700433BB42F7D3BA
:100F1000BDE8F0830000000010B52DED048B044601
:100F20009FED131A94ED012A94ED033A94ED049A7F
:100F300094ED050A81EE031A01EE020A15F09AFA01
:100F4000B0EE408A94ED000A94ED011AD4ED030A44
:100F500031EE000A14F004FF84ED010A94ED020A58
:100F600009EE080A84ED060ABDEC048B10BD00BF33
:100F7000DB0FC9400000000080ED000A0021416045
:100F800000F10802C2EC040A816170470000000011
:100F90002DE9F04381B0044602F0F6FE0546002C30
:100FA00000F09B8194F8350002281ED1206840F2A1
:100FB000B848C4F2020840F2B709C4F20209484531
:100FC00019DD40F25741C4F20201884224DC40F2AC
:100FD0002741C4F20201884239DCB821C4F202017F
:100FE000884251D040F2104149E0802060650020E5
:100FF00084F8340071E15721C4F2020188421ADDFD
:101000008721C4F2020188422ADC5821C4F202017D
:10101000884239D0702132E040F28741C4F20201A7
:10102000884224DC40F25841C4F2020188422BD0AD
:1010300040F2704123E01021C4F2020188421EBF39
:101040002821C4F2020188421ED0402117E040F25C
:101050002841C4F20201884216D040F240410EE01D
:101060008821C4F2020188420ED0A02107E040F29C
:10107000A041C4F20201884206D040F28841C4F285
:101080000201884240F0F18121680A6822F01E00C6
:1010900008602068416921F080014161276820686B
:1010A00040F26F46C4F20206B04216DC9F21C4F241
:1010B000020188422CDC5721C4F2020188424FDC35
:1010C0001021C4F2020188421EBF2821C4F202018D
:1010D000884200F08180402167E045F22F41C5F64B
:1010E0000201884227DC40F2B741C4F20201884283
:1010F00042DC40F27041C4F2020188421EBF40F25D
:101100008841C4F20201884266D040F2A0414CE01E
:1011100040F22741C4F20201884238DCA021C4F227
:10112000020188421EBFB821C4F20201884253D096
:1011300040F2104139E045F26B41C5F602018842A8
:1011400038DC45F23041C5F6020188421EBF45F247
:101150004441C5F6020188423ED045F2584137E08D
:101160005821C4F2020188421EBF7021C4F202015C
:10117000884231D0882118E040451EBF45F2084121
:10118000C5F60201884227D045F21C4120E040F21A
:101190002841C4F2020188421EBF40F24041C4F21D
:1011A0000201884218D040F25841C4F2020188423C
:1011B00012D016E045F26C41C5F6020188421EBF0E
:1011C00045F29441C5F60201884205D045F28041BE
:1011D000C5F60201884204D1206E016821F48071B5
:1011E0000160206840F20F41C4F20201884210DC25
:1011F0006F21C4F2020188421CDC3F21C4F20201CB
:10120000884232DC1021C4F2020188424ED02821EB
:1012100046E0B0421ADC40F23F41C4F2020188428B
:101220002ADC40F21041C4F2020188423ED040F272
:10123000284135E09F21C4F20201884225DC70215B
:10124000C4F20201884231D0882129E040F29F4156
:10125000C4F2020188421FDC40F27041C4F2020174
:10126000884223D040F288411AE04021C4F20201B2
:1012700088421BD0582113E040F24041C4F20201E1
:10128000884213D040F258410AE0A021C4F2020182
:1012900088420BD0B82103E0404507D040F2A0417E
:1012A000C4F20201884208BF206800E0206801689B
:1012B00021F00101016000BF386810F0010F10D06B
:1012C00002F062FD401B0628F6D320206065002056
:1012D00084F83400032084F83500012001B0BDE813
:1012E000F0832068484513DD40F25741C4F2020103
:1012F00088421EDC40F22741C4F20201884233DCFE
:10130000B821C4F2020188424BD040F2104143E0C0
:101310005721C4F2020188421ADD8721C4F202017A
:1013200088422ADC5821C4F20201884239D0702157
:1013300032E040F28741C4F20201884224DC40F2EC
:101340005841C4F2020188422BD040F2704123E0A0
:101350001021C4F2020188421EBF2821C4F20201FA
:1013600088421ED0402117E040F22841C4F2020119
:10137000884216D040F240410EE08821C4F20201BA
:1013800088420ED0A02107E040F2A041C4F2020141
:10139000884206D040F28841C4F20201884240F0FF
:1013A000C080D4E9161000F01F023F2090408860F2
:1013B0002068B04216DC9F21C4F2020188422CDC76
:1013C0005721C4F20201884258DC1021C4F2020104
:1013D00088421EBF2821C4F20201884200F08A80A0
:1013E000402170E045F22F41C5F60201884227DC1A
:1013F00040F2B741C4F2020188424BDC40F2704136
:10140000C4F2020188421EBF40F28841C4F20201C8
:1014100088426FD040F2A04155E040F22741C4F22B
:101420000201884241DCA021C4F2020188421EBFB1
:10143000B821C4F2020188425CD040F2104142E07F
:1014400045F26B41C5F60201884241DC45F230416C
:10145000C5F6020188421EBF45F24441C5F60201AD
:10146000884247D045F2584140E021680A6840452B
:101470003FF40CAE22F00E0008600FE65821C4F2D3
:10148000020188421EBF7021C4F20201884231D09D
:10149000882118E040451EBF45F20841C5F602010B
:1014A000884227D045F21C4120E040F22841C4F296
:1014B000020188421EBF40F24041C4F2020188424C
:1014C00018D040F25841C4F20201884212D01FE005
:1014D00045F26C41C5F6020188421EBF45F29441B7
:1014E000C5F60201884205D045F28041C5F60201E9
:1014F00088420DD1D4E919014160E06E00281FBF78
:10150000016821F480710160D4E91C0118BF4160B9
:10151000002084F83400012184F8351001B0BDE8C2
:10152000F083D4E9161202F01F0240453FF43DAFAC
:101530000120904048603BE7E8B190F8351002295F
:1015400017D1016840F20F42C4F20202914215DC49
:101550006F23C4F20203994225DC3F23C4F2020345
:1015600099423BDC1023C4F20203994259D028234C
:1015700053E08021416501210846704740F26F43E6
:10158000C4F2020399421ADC40F23F43C4F2020360
:1015900099422ADC40F21043C4F20203994240D03F
:1015A00040F2284339E09F23C4F20203994225DC2C
:1015B0007023C4F20203994233D088232DE040F215
:1015C0009F43C4F2020399421FDC40F27043C4F20D
:1015D0000203994225D040F288431EE04023C4F222
:1015E000020399421DD0582317E040F24043C4F251
:1015F0000203994215D040F258430EE0A023C4F2F2
:10160000020399420DD0B82307E040F2B843C4F278
:101610000203994205D040F2A043C4F2020399426A
:1016200071D1042180F835100168914210DC6F22DD
:10163000C4F20202914220DC3F22C4F20202914233
:1016400036DC1022C4F20202914254D028224EE02D
:1016500040F26F42C4F2020291421ADC40F23F4271
:10166000C4F2020291422ADC40F21042C4F20202A9
:10167000914240D040F2284239E09F22C4F2020257
:10168000914225DC7022C4F20202914233D08822BA
:101690002DE040F29F42C4F2020291421FDC40F270
:1016A0007042C4F20202914225D040F288421EE00C
:1016B0004022C4F2020291421DD0582217E040F2AB
:1016C0004042C4F20202914215D040F258420EE06C
:1016D000A022C4F2020291420DD0B82207E040F2EB
:1016E000B842C4F20202914205D040F2A042C4F2D4
:1016F0000202914220D10068016821F001010160DD
:1017000000210846704701680B6823F00E030B6048
:101710000168914215DC6F22C4F20202914225DC7D
:101720003F22C4F2020291423BDC1022C4F20202C8
:1017300091425BD0282253E0086820F00100086045
:10174000DEE740F26F42C4F2020291421ADC40F23C
:101750003F42C4F2020291422ADC40F21042C4F23B
:101760000202914242D040F2284239E09F22C4F264
:101770000202914225DC7022C4F20202914235D06D
:1017800088222DE040F29F42C4F2020291421FDC07
:1017900040F27042C4F20202914227D040F28842E5
:1017A0001EE04022C4F2020291421FD0582217E0EC
:1017B00040F24042C4F20202914217D040F2584235
:1017C0000EE0A022C4F2020291420FD0B82207E03C
:1017D00040F2B842C4F20202914207D040F2A04265
:1017E000C4F20202914208BF016800E001680A6881
:1017F00022F001020A60016840F26F42C4F2020264
:10180000914216DC9F22C4F2020291422CDC572244
:10181000C4F2020291424FDC1022C4F20202914251
:101820001EBF2822C4F20202914200F085804022AD
:101830006BE045F22F42C5F60202914227DC40F2EE
:10184000B742C4F20202914242DC40F27042C4F25A
:10185000020291421EBF40F28842C4F2020291424B
:101860006AD040F2A04250E040F22742C4F20202A5
:1018700091423CDCA022C4F2020291421EBFB82277
:10188000C4F20202914257D040F210423DE045F2CC
:101890006B42C5F6020291423CDC45F23042C5F68D
:1018A000020291421EBF45F24442C5F60202914235
:1018B00042D045F258423BE05822C4F20202914223
:1018C0001EBF7022C4F20202914235D088221CE071
:1018D00040F2B842C4F2020291421EBF45F20842F1
:1018E000C5F60202914227D045F21C4220E040F2A8
:1018F0002842C4F2020291421EBF40F24042C4F2AA
:101900000202914218D040F25842C4F202029142BF
:1019100012D02CE045F26C42C5F6020291421EBF85
:1019200045F29442C5F60202914205D045F280424A
:10193000C5F6020291421AD1016E0A6822F4807241
:101940000A60D0E9161202F01F02012303FA02F224
:101950004A60D0E919124A60C16E00291FBF0A68A7
:1019600022F480720A60D0E91C1218BF4A6000217C
:1019700080F83410012280F83520026D22B180B544
:1019800090470021BDE880400846704700000000F5
:10199000406D7047000000002DE9F04182B0044620
:1019A0000020019040F23020C2F20040006848F26E
:1019B000B511C1F64E31A0FB0108A56D2E6829684E
:1019C000206840F26F47C4F20207B84215DC9F213D
:1019D000C4F2020188422BDC5721C4F20201884282
:1019E0004EDC1021C4F2020188421EBF2821C4F23D
:1019F0000201884272D040216BE045F22F42C5F6C9
:101A00000202904227DC40F2B742C4F20202904246
:101A100042DC40F27041C4F2020188421EBF40F233
:101A20008841C4F20201884258D040F2A04150E0FF
:101A300040F22741C4F2020188423CDCA021C4F2FA
:101A4000020188421EBFB821C4F20201884245D07B
:101A500040F210413DE045F26B42C5F60202904271
:101A600074DC45F23042C5F6020290421EBF45F2D8
:101A70004442C5F6020290427BD045F2584273E0E0
:101A80005821C4F2020188421EBF7021C4F2020133
:101A9000884223D088211CE040F2B842C4F20202FE
:101AA00090421BD045F20842C5F60202904260D037
:101AB00045F21C4258E040F22841C4F2020188423B
:101AC0001EBF40F24041C4F20201884206D040F2FB
:101AD0005841C4F20201884240F0D283E06D00F028
:101AE0001F00082101FA00F0304200F01E8120683A
:101AF00040F20F41C4F20201884213DC6F21C4F2AC
:101B00000201884200F390803F21C4F20201884222
:101B100000F3D2801021C4F20201884200F0F0806C
:101B20002821E8E0B84200F38B8040F23F41C4F244
:101B30000201884200F3C78040F21041C4F2020162
:101B4000884200F0DD8040F22841D4E045F26C424A
:101B5000C5F6020290421EBF45F28042C5F602025F
:101B6000904206D045F29442C5F60202904240F0FF
:101B7000878320680068E26D02F01F0210F0040FF6
:101B80001EBF0423934013EA01062AD1830766D5BA
:101B90000223934013EA010661D06B60010400F157
:101BA0006983800600F1E984206840F20F41C4F2A5
:101BB0000201884200F316846F21C4F202018842B8
:101BC00000F391843F21C4F20201884200F3A6840D
:101BD0001021C4F20201884200F0C384282100F0E1
:101BE000BCBC6B6001045FD4800600F150842068A7
:101BF00040F20F41C4F20201884200F398836F2142
:101C0000C4F20201884200F3B6833F21C4F202010C
:101C1000884200F3FB831021C4F20201884200F0E5
:101C20003084282100F028BC9F21C4F202018842A0
:101C300052DC7021C4F20201884261D088215AE04E
:101C400040F29F41C4F2020188424CDC40F27041F4
:101C5000C4F20201884253D040F288414BE00007B1
:101C600040F10E8308209040084000F0098320686E
:101C700040F20F41C4F20201884200F36A836F21EF
:101C8000C4F20201884200F382833F21C4F20201C0
:101C9000884200F3C2831021C4F20201884200F09E
:101CA0000784282100F000BCC0034CBF216CA16C4C
:101CB000002940F03783E3E24021C4F20201884268
:101CC0001ED0582117E040F24041C4F20201884280
:101CD00016D040F258410EE0A021C4F20201884221
:101CE0000ED0B82107E040F2B841C4F202018842A8
:101CF00006D040F2A041C4F20201884240F0C38203
:101D000020680421006808420FD02068016821F093
:101D100004010160E06D00F01F00082101FA00F0ED
:101D2000A860606D40F001006065E06D00F01F008C
:101D3000012101FA00F0304278D0206840F20F41D2
:101D4000C4F20201884210DC6F21C4F20201884211
:101D50001CDC3F21C4F20201884232DC1021C4F2B3
:101D60000201884251D028214AE0B8421ADC40F2F0
:101D70003F41C4F2020188422ADC40F21041C4F221
:101D80000201884241D040F2284139E09F21C4F24B
:101D90000201884225DC7021C4F20201884234D05D
:101DA00088212DE040F29F41C4F2020188421FDCED
:101DB00040F27041C4F20201884226D040F28841CC
:101DC0001EE04021C4F2020188421ED0582117E0D3
:101DD00040F24041C4F20201884216D040F258411C
:101DE0000EE0A021C4F2020188420ED0B82107E023
:101DF00040F2B841C4F20201884206D040F2A0414C
:101E0000C4F20201884240F04082206814308021F0
:101E1000006808420AD0E06D00F01F00012101FABD
:101E200000F0A860606D40F002006065E06D00F0B9
:101E30001F00042101FA00F0304277D0206840F200
:101E40000F41C4F20201884210DC6F21C4F202018A
:101E500088421CDC3F21C4F20201884232DC10219E
:101E6000C4F20201884251D028214AE0B8421ADC6B
:101E700040F23F41C4F2020188422ADC40F21041A4
:101E8000C4F20201884241D040F2284139E09F214A
:101E9000C4F20201884225DC7021C4F202018842AA
:101EA00034D088212DE040F29F41C4F202018842E3
:101EB0001FDC40F27041C4F20201884226D040F299
:101EC00088411EE04021C4F2020188421ED0582100
:101ED00017E040F24041C4F20201884216D040F2BD
:101EE00058410EE0A021C4F2020188420ED0B82170
:101EF00007E040F2B841C4F20201884206D040F245
:101F0000A041C4F20201884240F0C1812068022150
:101F1000006808420AD0E06D00F01F00042101FAB9
:101F200000F0A860606D40F004006065E06D00F0B6
:101F30001F00102101FA00F0304200F08B80206871
:101F400040F20F41C4F20201884210DC6F21C4F25A
:101F5000020188421CDC3F21C4F20201884232DCCB
:101F60001021C4F20201884251D028214AE0B8422F
:101F70001ADC40F23F41C4F2020188422ADC40F2FE
:101F80001041C4F20201884241D040F2284139E0B8
:101F90009F21C4F20201884225DC7021C4F20201B3
:101FA000884234D088212DE040F29F41C4F20201E2
:101FB00088421FDC40F27041C4F20201884226D000
:101FC00040F288411EE04021C4F2020188421ED046
:101FD000582117E040F24041C4F20201884216D075
:101FE00040F258410EE0A021C4F2020188420ED016
:101FF000B82107E040F2B841C4F20201884206D09D
:1020000040F2A041C4F20201884240F042812068BF
:102010000821006808421DD0E06D00F01F0010216B
:1020200001FA00F0A86020680168006811F4802FB0
:1020300007D1C0055FBF2068016821F00801016079
:1020400001E0000301D4216C00E0A16C00291CBF59
:1020500020468847E06D00F01F00202101FA00F0C3
:10206000304200F0B880206840F20F41C4F2020113
:10207000884210DC6F21C4F2020188421CDC3F213F
:10208000C4F20201884232DC1021C4F2020188420B
:1020900051D028214AE0B8421ADC40F23F41C4F254
:1020A000020188422ADC40F21041C4F20201884257
:1020B00041D040F2284139E09F21C4F20201884218
:1020C00025DC7021C4F20201884234D088212DE041
:1020D00040F29F41C4F2020188421FDC40F270418D
:1020E000C4F20201884226D040F288411EE040211D
:1020F000C4F2020188421ED0582117E040F240414C
:10210000C4F20201884216D040F258410EE0A021EC
:10211000C4F2020188420ED0B82107E040F2B84173
:10212000C4F20201884206D040F2A041C4F202018A
:10213000884240F0B08020681021006808424AD0F0
:10214000E06D00F01F00202101FA00F0A86094F873
:10215000352021680868042A22D120F01600086082
:102160002068416921F080014161206C08B9A06CB0
:1021700020B12068016821F008010160E06D00F0E5
:102180001F003F2101FA00F0A860002084F834000D
:10219000012084F83500216D002940F0C3806FE0F4
:1021A0002168096840030DD4C8050FD42068016870
:1021B00021F010010160002084F83400012084F82F
:1021C000350003E0080301D4616C00E0E16B0029F5
:1021D0001CBF20468847606D002851D0606D10F00C
:1021E000010F00F09C80042084F83500206840F244
:1021F0000F41C4F20201884210DC6F21C4F20201D7
:1022000088421CDC3F21C4F20201884245DC1021D7
:10221000C4F20201884265D028215DE0B8421ADC90
:1022200040F23F41C4F2020188423DDC40F21041DD
:10223000C4F20201884255D040F228414CE09F216F
:10224000C4F20201884238DC7021C4F202018842E3
:1022500048D0882140E040F29F41C4F20201884208
:1022600032DC40F27041C4F2020188423AD040F2BE
:10227000884131E0C00354BF616CE16B002951D14A
:1022800002B0BDE8F08108213CE50021C0E5002155
:102290003EE60421BDE602214FE74021C4F20201DF
:1022A00088421FD0582117E040F24041C4F2020199
:1022B000884217D040F258410EE0A021C4F202013A
:1022C00088420FD0B82107E040F2B841C4F20201C1
:1022D000884207D040F2A041C4F20201884208BF00
:1022E000206800E020684FEA9821026822F001028D
:1022F000026000BF0198421C019220688A4203D804
:10230000026812F0010FF5D1002184F83410006842
:1023100000F00100012141EA400084F83500E16C41
:102320000029ADD02046884702B0BDE8F081B84210
:102330003ADC40F23F41C4F20201884274DC40F2D0
:102340001041C4F20201884200F09B8040F2284113
:1023500092E0B84237DC40F23F41C4F202018842C9
:102360006BDC40F21041C4F20201884200F0A08010
:1023700040F2284198E09F21C4F20201884265DCC6
:102380007021C4F2020188427BD0882174E09F2131
:10239000C4F20201884260DC7021C4F2020188426A
:1023A00000F0868088217FE040F29F41C4F2020164
:1023B000884259DC40F27041C4F20201884260D088
:1023C00040F2884158E040F29F41C4F20201884245
:1023D00062DC40F27041C4F20201884268D040F2EF
:1023E000884161E0B84200F38A8040F23F41C4F284
:1023F0000201884200F3998040F21041C4F20201C8
:10240000884200F0AE8040F22841A6E04021C4F2AC
:102410000201884235D058212EE04021C4F2020149
:10242000884245D058213FE040F24041C4F20201C9
:10243000884226D040F258411EE040F24041C4F2AA
:102440000201884234D040F258412DE0A021C4F26C
:102450000201884215D0B8210EE0A021C4F2020189
:10246000884225D0B8211FE040F2B841C4F20201F1
:10247000884206D040F2A041C4F20201884240F0F6
:10248000818020686FF00801026811400160216CB2
:1024900000297FF447AFF3E640F2B841C4F20201ED
:1024A000884205D040F2A041C4F2020188426CD1BA
:1024B00020686FF01C01026811400160E06D00F0BF
:1024C0001F00012101FA00F068606165002084F8B6
:1024D000340084F83510E16C00291CBF2046884781
:1024E00002B0BDE8F0819F21C4F20201884225DCE0
:1024F0007021C4F20201884233D088212DE040F2DD
:102500009F41C4F2020188421FDC40F27041C4F2D4
:102510000201884225D040F288411EE04021C4F2E9
:10252000020188421DD0582117E040F24041C4F218
:102530000201884215D040F258410EE0A021C4F2B9
:10254000020188420DD0B82107E040F2B841C4F240
:102550000201884205D040F2A041C4F20201884243
:1025600016D120686FF0140102681140016000204C
:1025700084F83400012084F83500E16B00297FF4F1
:10258000D1AE7DE66FF004017EE76FF00E0192E7B9
:102590006FF00A01E8E700002DE9F04381B004463E
:1025A00001F0F2FB0546002C00F07381206840F238
:1025B0006F48C4F20208404515DC9F21C4F20201B5
:1025C00088422BDC5721C4F20201884250DC1021E2
:1025D000C4F2020188421EBF2821C4F202018842CF
:1025E00074D040216DE045F22F41C5F602018842CA
:1025F00027DC40F2B741C4F20201884244DC40F2D9
:102600007041C4F2020188421EBF40F28841C4F208
:10261000020188425AD040F2A04152E040F22741E4
:10262000C4F2020188423EDCA021C4F202018842C9
:102630001EBFB821C4F20201884247D040F21041C7
:102640003FE045F26B41C5F60201884200F38F80FE
:1026500045F23041C5F6020188421EBF45F24441B1
:10266000C5F60201884200F0958045F258418CE0A1
:102670005821C4F2020188421EBF7021C4F2020137
:10268000884223D088211CE040F2B841C4F2020104
:1026900088421BD045F20841C5F60201884279D034
:1026A00045F21C4171E040F22841C4F20201884227
:1026B0001EBF40F24041C4F20201884206D040F2FF
:1026C0005841C4F20201884240F00B82002084F895
:1026D0003400022084F83500206840F20F41C4F233
:1026E0000201884212DC6F21C4F20201884220DC20
:1026F0003F21C4F20201884200F391801021C4F20C
:102700000201884200F0B0802821A7E040451EDC8D
:1027100040F23F41C4F20201884200F3878040F258
:102720001041C4F20201884200F09E8040F228412C
:1027300094E09F21C4F20201884200F3808070215E
:10274000C4F20201884200F08F80882186E040F2C6
:102750009F41C4F20201884278DC40F27041C4F229
:102760000201884200F0808040F2884176E045F224
:102770006C41C5F6020188421EBF45F28041C5F694
:102780000201884206D045F29441C5F60201884212
:1027900040F0A781002084F83400022184F835102D
:1027A00021680A68D4E90237D4E90465D4E906CE81
:1027B000D4F820906FF3101242EAD702802B08BFA2
:1027C0004FF48040402B08BF1020104340EAD60051
:1027D00040EAD50040EADC0040EADE0040EA191099
:1027E000086020684AF6F831CAF2FD7108444CF6D8
:1027F000CD41CCF6CC41A0FB01014FF6FC70C3F6F5
:10280000FF7000EA9100E0652046FDF711FFE16DE1
:1028100001F01F01012202FA01F141609BE0402119
:10282000C4F2020188421FD0582117E040F2404113
:10283000C4F20201884217D040F258410EE0A021B4
:10284000C4F2020188420FD0B82107E040F2B8413B
:10285000C4F20201884207D040F2A041C4F2020152
:10286000884208BF206800E02068016821F001016B
:10287000016000BF2068016811F0010F0DD001F068
:1028800083FA401B0628F5D320206065032084F8D6
:102890003500012001B0BDE8F083006848F23F0137
:1028A000CFF6106100EA010C04F10807EECFD4E97D
:1028B000080E41EA0C0111431943294331433943BE
:1028C0000843BEF1040F02BFD4E90B1208431043C2
:1028D00040F48011D4E90023A3F13F07042F38BF4F
:1028E0000846A3F12907062F38BF0846A3F147077A
:1028F000022F38BF0846A3F14F07042F38BF084600
:1029000023F00303742B08BF084610602068406959
:10291000616A20F0070040EA010504290FD1D4E9DB
:102920000A01054359B12046FDF7E6FF38B14020C2
:102930006065012084F8350001B0BDE8F0832068AF
:1029400045612046FDF774FEE16D01F01F013F2255
:1029500002FA01F181602068404516DC9F21C4F233
:10296000020188422CDC5721C4F2020188424FDC6C
:102970001021C4F2020188421EBF2821C4F20201C4
:10298000884200F0858040216BE045F22F41C5F67A
:102990000201884227DC40F2B741C4F202018842BA
:1029A00042DC40F27041C4F2020188421EBF40F294
:1029B0008841C4F2020188426AD040F2A04150E04E
:1029C00040F22741C4F2020188423CDCA021C4F25B
:1029D000020188421EBFB821C4F20201884257D0CA
:1029E00040F210413DE045F26B41C5F602018842DC
:1029F0003CDC45F23041C5F6020188421EBF45F27B
:102A00004441C5F60201884242D045F258413BE0BC
:102A10005821C4F2020188421EBF7021C4F2020193
:102A2000884235D088211CE040F2B841C4F202014E
:102A300088421EBF45F20841C5F60201884227D0F0
:102A400045F21C4120E040F22841C4F202018842D4
:102A50001EBF40F24041C4F20201884218D040F249
:102A60005841C4F20201884212D032E045F26C4172
:102A7000C5F6020188421EBF45F29441C5F6020127
:102A8000884205D045F28041C5F60201884220D136
:102A90002046FDF75DFEA068802804BF002060602E
:102AA000206E21790160D4E9190141606068A0F1CC
:102AB0000100072809D82046FDF7BEFEE06E002180
:102AC0000160D4E91C01416003E00020C4E91B005F
:102AD000606700206065012184F8351001B0BDE811
:102AE000F0834020D1E6000070B504468CB394F822
:102AF0003400012802BF0220C0B270BD4FF00100B7
:102B000084F8340094F8350001281CD1022084F8A0
:102B1000350000206065206840F20F46C4F20206CE
:102B2000B04219DC6F25C4F20205A84229DC3F251A
:102B3000C4F20205A8423FDC1025C4F20205A842F7
:102B40005FD0282557E0002084F834004FF400605F
:102B500060650120C0B270BD40F26F45C4F202054D
:102B6000A8421ADC40F23F45C4F20205A8422ADC22
:102B700040F21045C4F20205A84242D040F2284576
:102B800039E09F25C4F20205A84225DC7025C4F275
:102B90000205A84235D088252DE040F29F45C4F2B9
:102BA0000205A8421FDC40F27045C4F20205A842AB
:102BB00027D040F288451EE04025C4F20205A84215
:102BC0001FD0582517E040F24045C4F20205A84244
:102BD00017D040F258450EE0A025C4F20205A842E5
:102BE0000FD0B82507E040F2B845C4F20205A8426C
:102BF00007D040F2A045C4F20205A84208BF2068F1
:102C000000E02068056825F0010505602046FDF715
:102C10009FFE2068B721C4F20201884213DD40F212
:102C20005741C4F2020188421EDC40F22741C4F23F
:102C30000201884233DCB821C4F2020188424BD041
:102C400040F2104143E05721C4F2020188421ADDEC
:102C50008721C4F2020188422ADC5821C4F2020111
:102C6000884239D0702132E040F28741C4F202013B
:102C7000884224DC40F25841C4F2020188422BD041
:102C800040F2704123E01021C4F2020188421EBFCD
:102C90002821C4F2020188421ED0402117E040F2F0
:102CA0002841C4F20201884216D040F240410EE0B1
:102CB0008821C4F2020188420ED0A02107E040F230
:102CC000A041C4F20201884206D040F28841C4F219
:102CD0000201884240F02981226811680B2060F3CC
:102CE00044011160206C20B12068016841F00801A6
:102CF0000160216840F26F40C4F20200814216DC9C
:102D00009F22C4F2020291422CDC5722C4F202023A
:102D100091424FDC1022C4F2020291421EBF2822CF
:102D2000C4F20202914200F0858040226BE045F23D
:102D30002F42C5F60202914227DC40F2B742C4F2AC
:102D40000202914242DC40F27042C4F2020291421D
:102D50001EBF40F28842C4F2020291426AD040F2A1
:102D6000A04250E040F22742C4F2020291423CDC11
:102D7000A022C4F2020291421EBFB822C4F2020293
:102D8000914257D040F210423DE045F26B42C5F609
:102D9000020291423CDC45F23042C5F60202914209
:102DA0001EBF45F24442C5F60202914242D045F2AE
:102DB00058423BE05822C4F2020291421EBF7022E8
:102DC000C4F20202914235D088221CE040F2B8429F
:102DD000C4F2020291421EBF45F20842C5F6020249
:102DE000914227D045F21C4220E040F22842C4F232
:102DF000020291421EBF40F24042C4F202029142DE
:102E000018D040F25842C4F20202914212D021E09E
:102E100045F26C42C5F6020291421EBF45F2944251
:102E2000C5F60202914205D045F28042C5F6020283
:102E300091420FD1216E0A6812F4803F1EBF0A68CA
:102E400042F480720A60E16E00291EBF0A6842F4F3
:102E500080720A602168B14210DC6F20C4F2020067
:102E600081421CDC3F20C4F20200814232DC10208F
:102E7000C4F20200814250D028204AE081421ADC8C
:102E800040F23F40C4F2020081422ADC40F210408E
:102E9000C4F20200814240D040F2284039E09F2035
:102EA000C4F20200814225DC7020C4F2020081429B
:102EB00033D088202DE040F29F40C4F202008142CE
:102EC0001FDC40F27040C4F20200814225D040F283
:102ED00088401EE04020C4F2020081421DD05820EC
:102EE00017E040F24040C4F20200814215D040F2A7
:102EF00058400EE0A020C4F2020081420DD0B8205C
:102F000007E040F2B840C4F20200814205D040F22E
:102F1000A040C4F2020081421ED12068016841F045
:102F2000010101600020C0B270BD2268116840F24A
:102F3000B843C4F2020398423FF4D0AE052060F3D8
:102F4000430120680160206C00283FF4D2AE206865
:102F5000016841F00401CBE6086840F00100086018
:102F6000E0E700000000000070B505466E1C00F0B0
:102F70000BFF044636B141F23420C2F20040007823
:102F8000054401E04FF0FF3500F0FEFE001BA842B3
:102F9000FAD370BD0000000090F89830013BDBB21E
:102FA000012B18D8D0F800C0DCF858300B4217D0ED
:102FB00080B5D0F800E0DEF858300B408B4206BFF9
:102FC000DEF85C3043F0020C4FF0030CCEF85CC02E
:102FD000BDE880400AE000F19C01012002222AE0C5
:102FE000DCF85C3043F00103CCF85C308B0541BF6A
:102FF000D0F800C0DCF8E0301343CCF8E0304B05EB
:1030000041BFD0F800C0DCF8E4301A43CCF8E4202B
:103010004FF6FF72C3F6CF7202EA01020068436DF9
:1030200042EA030242654FEA91724FF000004AF60D
:103030001401C4F200010B681A430A6070470000D3
:10304000B0B5044694F8980002281BD12068D0F847
:10305000C03013F07C5F1AD0D0F8C43013F4001FD6
:103060001AD1D0F8C400C0F3044520462B46FDF722
:1030700013FF0120A8402168C1F8D000C4F89400D3
:103080000020B0BDD4F89C0040F0080008E0D4F85F
:103090009C0040F0200003E0D4F89C0040F4007055
:1030A000C4F89C000120B0BD704700000000000083
:1030B00090F89820013AD2B2012A09D80A68D1E9D9
:1030C000033C6AB14CEA4372072B15D18B6918E0B7
:1030D000D0F89C1041F00201C0F89C10012070470C
:1030E00080B54FEA0C4C072B14D101F1180ECA69B8
:1030F00013024FF0605212E0D1F808C04B6943EA66
:103100008C734968006F40F8312000EBC1004360C8
:103110000020704701F1140EDA068B689B0742EA23
:103120000C021A43DEF800301A434968C06E40F8BA
:103130002120002080BD000090F898C0BCF1010F54
:103140000DD1DDF800C0920042EA011141EA4301CD
:1031500041EA0C010068C0F8801000207047D0F8E8
:103160009C1041F00401C0F89C1001207047000041
:1031700070470000000000007047000000000000E1
:1031800070B590F89850022D1BD140291ED10568CA
:10319000D5F8A04014F4FE0F00F09A80D5F8A440B2
:1031A00014F07F0F00F0A280D5F8A44014F0807FC7
:1031B00018BFD5F8A04000F1740ED5F8A440456CB6
:1031C0001EE0D0F89C1041F0080193E041291BD18A
:1031D0000568D5F8B04014F4FE0F79D0D5F8B440A6
:1031E00014F07F0F00F08280D5F8B44014F0807F97
:1031F00018BFD5F8B04000F1780ED5F8B440C56CD2
:10320000C4F30524A44608E0056D8D4260D900F1A1
:103210007C0E446D4FF0000C0D4605FB04F6DEF805
:10322000005055F8264014F08044546055F826E0CC
:10323000CEF38A4418BF2EF06044146055F826403F
:1032400004F00054946055F8264004F000441461E2
:1032500005EB8605AE88D6616E6806F47026D660EA
:103260006E6806F4801656616E6806F40016966164
:10327000EE7906F07F0616626E68F60F5662D66823
:10328000B6F5803F0ED30835002447F6C20EC0F6CF
:10329000010E00BF2E5D1E55D6891EF80660013452
:1032A000B442F7D30068402902BFC0F8A8C000208C
:1032B00070BD412902BFC0F8B8C0002070BD1F29F1
:1032C0000BD8012202FA01F1C0F89810002070BD5D
:1032D000D0F89C1041F020010CE001F01F01012208
:1032E00002FA01F1C0F89C10002070BDD0F89C10CB
:1032F00041F48071C0F89C10012070BD00000000F6
:1033000070470000000000002DE9F04F87B0044630
:103310004AF61003C4F2000319684AF61400C4F216
:10332000000002682068056D476DD0F85090D0F815
:1033300054B0066D0296466D0196066D0696466D72
:103340000596066D0496466D039602EA010A416DE4
:1033500011F4807F1CBF016D11F4807F07D04FF402
:1033600080710165002018602046FFF7C9FF05EA5B
:1033700007084FEA8A772068416D11F4806F1CBFFF
:10338000016D11F4806F10D0D0F8DC10D0F8E4207B
:103390004FF48063036500204AF61003C4F2000373
:1033A00018601140204600F0F7FB09EA0B0508F40D
:1033B0007046002F4AF61008C4F200080AD02068B0
:1033C000002101650AF00300C8F8000020463946D4
:1033D000FFF76AFEDDE9011000EA010705F00F05BD
:1033E00046B1206806650020C8F800002046314636
:1033F00000F0DAFB07F0F00645B120680565002013
:10340000C8F800002046294600F00AFB46B12068B3
:1034100006650020C8F800002046314600F044FB55
:103420002068416D11F4006F1CBF016D11F4006F35
:1034300008D04FF4006101650020C8F80000204664
:1034400000F0B6FB2068416D11F4007F1CBF016DD8
:1034500011F4007F0DD0D0F8D810D0F8E0204FF450
:10346000007303650020C8F800001140204600F0FA
:1034700097FB2068416D11F4002F1CBF016D11F402
:10348000002F08D04FF4002101650020C8F800008B
:10349000204600F0C1FA2068416D11F4803F1CBF46
:1034A000016D11F4803F08D04FF480310165002098
:1034B000C8F80000204600F06BFBDDE9031000EACD
:1034C00001052068416D11F4802F1CBF016D11F4BE
:1034D000802F08D04FF4802101650020C8F800003B
:1034E000204600F051FBDDE90510084005F0607151
:1034F0002268536D13F4003F1CBF136D13F4003F9B
:103500000BD04FF4003313650022C8F80020D4F824
:103510009C2042F08002C4F89C2000F0715539B123
:10352000206801650020C8F800002046FFF724FE4F
:103530004DB1206805650020C8F80000D4F89C0053
:103540002843C4F89C002068A8F5016188425ED138
:103550006068816811F0030F59D0016A426A114016
:1035600011F00F01026A436A02EA030202F0300519
:10357000066A476AD0F820A0D0F824B0D0F820809E
:10358000D0F8249003D00162204600F0F1FA3740D1
:103590002DB1606805622046294600F0F1FA0AEA7A
:1035A0000B0607F4C0756068416A11F0400F1CBF3C
:1035B000016A11F0400F09D0C16BC26B4023036256
:1035C000090C02F03F02204600F0D6FA08EA09078B
:1035D00006F4FC462DB1606805622046294600F0DD
:1035E000C3FA07F4F020002E1FBF61680E62D4F802
:1035F0009C10314318BFC4F89C1000281FBF61689D
:103600000862D4F89C10084318BFC4F89C00D4F892
:103610009C00002804BF07B0BDE8F08F204607B02B
:10362000BDE8F04FFFF7A4BD2DE9F041044674B3A7
:1036300020684AF20008C4F20008404504BF00F5C3
:103640008070606094F8980028B9002084F8990090
:10365000204600F025F92068816921F01001816180
:1036600000F092FB054600BF2068816911F0080F49
:1036700010D000F089FB401B0B28F5D3D4F89C0038
:1036800040F00100C4F89C00032084F89800012059
:10369000BDE8F081816941F00101816100F074FBB6
:1036A000054600BF2068816911F0010F10D100F0BC
:1036B0006BFB401B0B28F5D3D4F89C0040F00100B5
:1036C000C4F89C00032084F898000120BDE8F08134
:1036D000816941F002018161207C21688A6942F0A0
:1036E0004003012808BF22F040038B61607C216801
:1036F0008A6922F48043012808BF42F480438B6129
:10370000A07C21688A6942F48053012808BF22F412
:1037100080538B6120688169A26821F44071114354
:1037200081612068816921F0A401816120680169BB
:1037300021F010010161E268EAB1012A05D1206897
:10374000816941F00401816115E0206850F8181F7B
:10375000022A0DD041F0800101602068016941F02A
:1037600010010161E068032805D1206850F8181F96
:1037700041F0200101602268D4E90530D4E9071541
:103780004FF07E4606EB40666FF0FF0000EB012134
:1037900031436E1E0E430021CFF6FF7101EB034350
:1037A0003343D361A268B2F5407F11D104F12406FE
:1037B0004CCE256B6FF00F0707EB0517256800EB64
:1037C0000620013B1843384301EB02410843E860FF
:1037D000206E00281FBF2068616ED0F8C020114302
:1037E00018BFC0F8C010D4E91701C8420ED0206835
:1037F000D0F8C810A26E46F6A843C0F6010353F8ED
:10380000222021F007011143C0F8C810206C70B1CC
:103810002068D0F8BC10626C46F6A843C0F60103DD
:1038200053F8222021F007011143C0F8BC10A06C0E
:1038300078B12068D0F8BC10E26C46F6A843C0F618
:10384000010353F8222021F0700141EA0211C0F86F
:10385000BC10206D78B12068D0F8BC10626D46F6BF
:10386000A843C0F6010353F8222021F4E06141EAA5
:103870000221C0F8BC102068404504D1606881680E
:1038800021F0030181600020C4F89400C4F89C007A
:10389000012084F898002046BDE8F041FDF7F8B912
:1038A00080B586B000210591CDE90311CDE9011164
:1038B000026840F60040C5F6020044F2E041C5F659
:1038C00002014DF20043C4F200039A423AD04AF298
:1038D0000043C4F200039A4267D04AF20003C4F2E4
:1038E00000039A425FD141F2702CC2F2004CDCF826
:1038F00000305A1CCCF8002043B9CA6842F48072E8
:10390000CA60CA6802F480720092009A0A6842F0A3
:1039100008020A60096801F008010091009903217A
:103920000191022102910021CDE9031109210591A4
:1039300001A900F041F913200521002200F0E4FA6A
:10394000132063E041F2702CC2F2004CDCF800302E
:103950005A1CCCF8002043B9CA6842F48072CA608D
:10396000CA6802F480720092009A0A6842F0080263
:103970000A60096801F00801009100994FF4405174
:103980000191022102910021CDE903110521059148
:1039900001A900F011F99F200521002200F0B4FADE
:1039A0009F2000F0ADFA06B080BD41F2702CC2F24B
:1039B000004CDCF800305A1CCCF8002043B9CA682F
:1039C00042F48072CA60CA6802F480720092009A5F
:1039D0000A6842F002020A60096801F002010091DF
:1039E00000994FF440510191022102910021CDE94B
:1039F000031109210591A0F5006001A900F0DCF890
:103A000014200521002200F07FFA142000F078FA3B
:103A100006B080BD000000007047000000000000FC
:103A2000B0B50446C80708BFB0BD43F6E035C2F2E2
:103A3000004543F69D33C2F2004320464FF040015B
:103A40002A46FFF79DFB20684DF20041C4F20001B9
:103A5000884212D04AF20041C4F2000188421CD1CF
:103A60002968B1F5807F18BF20290CD143F69D301D
:103A7000C2F200400DF060FA0FE0296841F2FC50FC
:103A8000C2F2004003E041F2A820C2F2004043F637
:103A90009D32C2F200420BF0EBFF204601210022D2
:103AA000FFF77AFAB0BD000070B50446C80658BFEB
:103AB00070BD43F64846C2F2004643F60845C2F2DE
:103AC000004520464FF0410132462B46FFF758FB98
:103AD00020684DF20041C4F20001884210D04AF241
:103AE0000041C4F20001884211D04AF20001C4F240
:103AF0000001884213D1287829460BF0B1FD0EE071
:103B0000316843F60842C2F20042022005E0316803
:103B100043F60842C2F2004201200BF0A9F8204609
:103B200010210022FFF738FA70BD000000000000ED
:103B300090F8981001290CD1022180F898100168A2
:103B40008A6922F001028A610021C0F89C100846AF
:103B50007047D0F89C1041F00401C0F89C1001217E
:103B60000846704700000000704700000000000099
:103B700070470000000000007047000000000000D7
:103B800070470000000000007047000000000000C7
:103B900070470000000000007047000000000000B7
:103BA00070470000000000007047000000000000A7
:103BB00070470000000000002DE9F04F82B00E6851
:103BC000002E00F0D48042F20042C5F602020A271D
:103BD000904208BF092700F1264202F1FF724FEA26
:103BE000B223082B38BF4FEAB22700974FF0010AE3
:103BF000002240F2040EC5F6000E0027012400BF8B
:103C0000A4F101090AFA09FB16EA0B0800F0A480E6
:103C10004E68122E1CD80AFA06F616F0061F1FBFB1
:103C2000032303FA02F6D0F808C02CEA06061FBFE9
:103C3000CB689340334383601FBF436823EA0B0381
:103C40004E68C6F300161EBF06FA09F633434360FA
:103C500003239340C6689E438D6895402E43C660FB
:103C60006FEA030C4B6843F01003122B14D107F0DA
:103C70001C030F2505FA03FB4FF6FC75C7F6FF750D
:103C800005EA59060644356A25EA0B0B0D6905FA63
:103C900003F343EA0B033362036803EA0C034E6841
:103CA00006F00306964033430360CB79DB0653D519
:103CB00044F2F443C5F602031E46336843F00203A0
:103CC0003360336803F002030193019B29F003037F
:103CD00040F20846C5F60006B14653F809C007F0A1
:103CE0000C050F26AE402CEA060C009E06FA05F5E0
:103CF0004CEA050643F80960DEF87C3023EA080345
:103D00004E6816F4803F18BF43EA0803CEF87C30B3
:103D1000DEF8803023EA08034E6816F4003F18BF2F
:103D200043EA0803CEF880304FF0B0452B6823EA11
:103D300008034E6816F4801F18BF43EA08032B607F
:103D4000DEF8003023EA08034E6816F4001F18BF9F
:103D500043EA0803CEF800300E6836FA04F302F1A5
:103D6000020207F1040704F101047FF449AF02B035
:103D7000BDE8F08F00000000002A08BF090481613F
:103D8000704700000000000047F62460C2F20040C7
:103D9000006870470000000000684AF6AA21016030
:103DA000002070470000000041F23420C2F20040C1
:103DB000007847F62461C2F200410A6810440860A6
:103DC000704700000000000080B5032000F0ACF850
:103DD00001F036FC44F21841C5F602010A68C2F34C
:103DE000032246F69843C0F601039A5C02F01F02D4
:103DF000D040096801F00F01595C01F01F0120FA61
:103E000001F140F23422C2F20042116040F230214E
:103E1000C2F200410860002000F00AF800281CBF30
:103E2000012080BD00F054F84FF0000080BD00007C
:103E3000B0B58AB004460F2C3DD800251920214684
:103E4000002200F061F8192000F05AF841F2382001
:103E5000C2F20040046044F2F040C5F6020001687E
:103E600041F001010160006800F001000290029839
:103E700002A801A901F068FB01F0CEFB42F2CC419F
:103E8000C2F200410022C4F2010240F2E7334000D6
:103E90004DF68364C4F21B34A0FB04044FF0FF30E2
:103EA00000EB9440C1E90020C1E902530D610846CE
:103EB00002F03EFB10B101200AB0B0BD42F2CC408E
:103EC000C2F2004002F08CFB0AB0B0BD000000005E
:103ED00081B044F2F440C5F60200016841F00201ED
:103EE0000160006800F00200009000986FF001008F
:103EF0000F21002201B000F007B800000000000010
:103F000006F0EEBE0000000070B514460D460646F1
:103F100006F0FAFE2946224604F046F901463046EC
:103F2000BDE8704006F0F8BE06F00ABF00000000D1
:103F30007047000000000000D0F8040406F068B8E4
:103F4000C1EBC10200EB8202926CD0F8040405F0D0
:103F5000CFBF000000000000C1EBC10200EB8202F5
:103F6000D2F80822D0F8040406F016B800000000C9
:103F7000D0F8040406F050B8B0B50A46044602F082
:103F80000F006168884282BF0125E8B2B0BDC0EB76
:103F9000C00104EB810303F13C0112F0800F08BF64
:103FA00003F5FE71C2F3C0124A7000258D700870CF
:103FB00094F8BC03012802BF0225E8B2B0BD4FF05F
:103FC000010084F8BC03206806F01AFC84F8BC5396
:103FD000E8B2B0BD0000000070B50C46064604F023
:103FE0000F00C0EBC00106EB810505F13C0114F0A8
:103FF000800F08BF05F5FE71C4F3C0154D70087041
:104000008A60CB70487800281CBF0878C880022BD3
:1040100004BF0020087196F8BC03012802BF0220EB
:10402000C0B270BD4FF0010086F8BC03306806F0E6
:10403000DFFA4FF0000086F8BC03C0B270BD00008C
:1040400080B501F00F0CCCEBCC0100EB810ECEF86B
:1040500008220021CEE984318EF8FD118EF8FCC1D2
:104060000EF5FE710369012B08BFCEF80C22006823
:10407000DAB2BCF1000F03D006F00EFC002080BDC8
:1040800006F012FB002080BDB0B5044601F00F051C
:104090006268012095422BD8C1EBC10204EB820378
:1040A000C5EBC50204EB82023C3211F0800F08BF61
:1040B00003F5FE72C1F3C01151709070157094F841
:1040C000BC03012802BF0220C0B2B0BD4FF0010006
:1040D00084F8BC032068114606F0BAFB2DB9217C98
:1040E000206804F5717206F05BFB002084F8BC03C5
:1040F000C0B2B0BD0000000080B501F00F0CCCEBE9
:10410000CC0100EB810ECEF848200021CEE914311D
:1041100001218EF83D10714601F83CCF0369012B57
:1041200008BFCEF84C200068DAB2BCF1000F03D013
:1041300006F0B2FB002080BD06F0B6FA002080BD7C
:104140002DE9F04F81B08246DAF80090484606F03B
:10415000A3FC10B101B0BDE8F08FDAF8000006F062
:10416000CBFC0028F6D0DAF8000006F0C5FC10F011
:10417000020F1FBFDAF80000416901F0020141613E
:10418000DAF8000006F0B8FC10F0100F42D0DAF8B0
:104190000000816921F010018161D9F82040C4F349
:1041A000434004F00F0506281DD002282CD147F605
:1041B000F070044028D0C5EBC5000AEB8005D5F8A7
:1041C0000812C4F30F12484606F09AFCD5F808020C
:1041D00000EB1410C5F80802D5F8140200EB141017
:1041E000C5F8140210E00AF571714846082206F07D
:1041F00087FCC5EBC5000AEB8000D0F81412C4F3AD
:104200000A121144C0F81412DAF80000816941F072
:1042100010018161DAF8000006F06EFC10F4002F46
:1042200039D0DAF8000006F043FCA0B309F5306499
:1042300000274FF00108002683465FEACB7023D0A9
:10424000DAF80000F1B206F04FFC054615F0010F58
:1042500005D0C4F808805046314604F005F8280718
:1042600005D50820A0605046314603F0D1FFE8068E
:1042700044BF1020A060A80644BF2020A060A8046E
:1042800044BF4FF40050A06020344FEA5B00013679
:10429000B7EB5B0FD0D1DAF8000006F02DFC10F47C
:1042A000802F5FD0DAF8000006F0FAFB002859D022
:1042B0000AF144040AF57171009109F510650026B0
:1042C000002700BF80465FEAC87043D0DAF80000DC
:1042D0005FFA87FB594606F0F3FB064616F0010F1E
:1042E00020D007F00F00012202FA00F0D9F83418AC
:1042F00021EA0000C9F83408AA60DAF810000128A1
:104300000CD1D4E90001084460603FB9E06828B9E5
:10431000DAF800000121009A06F042FA50465946A8
:10432000FFF70EFE300744BF0820A860F00644BF28
:104330001020A860700644BF4020A860B00744BFAA
:104340000220A86030064FF0000603D550463946DB
:1043500003F0FAFF1C3420354FEA58000137B6EB62
:10436000580FAFD1DAF8000006F0C6FBB0F1FF3FFE
:104370001ADCD9F8040820F00100C9F804089AF8FA
:10438000F403012807D100208AF8F40350460021E5
:10439000FFF7CEFD02E0504600F046F9DAF80000E3
:1043A000416901F000414161DAF8000006F0A4FB28
:1043B00010F4006F0DD0D9F8080810F0010F1CBFE1
:1043C000504600F059F9DAF80000416901F4006143
:1043D0004161DAF8000006F08FFB10F0006F1AD090
:1043E000DAF80000416901F0006141619AF8F403D4
:1043F00018B1504600F040F90DE001208AF8F403AE
:10440000DAF80000406DC0F38300CAF8F8035046A4
:104410000121FFF78DFDDAF8000006F06DFB10F4C6
:10442000805F5FD0D9F8040820F00100C9F80408C3
:10443000DAF80000102106F003FB09F50060DAF855
:10444000041011B309F5106100224FF67F3300BF4D
:104450008B600F6827F400170F600F6847F0006744
:104460000F60C1F80832D1F8007227F40017C1F8C4
:104470000072D1F8007247F00067C1F80072203175
:104480000132DAF80470BA42E2D3C16941F0011195
:10449000C161DAF8301041B1D0F8841041F00B015D
:1044A000C0F8841000F1440106E0416942F22B0299
:1044B0001143416100F110010A6842F00B020A60E9
:1044C000016821F4FE6101609AF81010DAF800002A
:1044D0000AF5717206F064F9DAF80000416901F436
:1044E00080514161DAF8000006F006FB10F4005F2D
:1044F0001CD0DAF8000006F0C7F8DAF8000006F081
:10450000B7FACAF80C00DAF8005001F049F8014691
:104510009AF80C20284606F037FB504600F06CF85D
:10452000DAF80000416901F400514161DAF8000055
:1045300006F0E2FA10F0080F08D0504600F078F8C4
:10454000DAF80000416901F008014161DAF8000081
:1045500006F0D2FA10F4801F09D05046002100F076
:1045600043F8DAF80000416901F480114161DAF89A
:10457000000006F0C1FA10F4001F09D050460021D7
:1045800000F036F8DAF80000416901F400114161E9
:10459000DAF8000006F0B0FA10F0804F08D050466C
:1045A000FFF7CAFCDAF80000416901F0804141617F
:1045B000DAF8000006F0A0FA10F0040F3FF4CAADDC
:1045C000DAF80000446814F0040F1CBF5046FFF7EF
:1045D000CFFCDAF80000416841EA0401416001B013
:1045E000BDE8F08F00000000D0F8040405F038BDED
:1045F000D0F8040405F04CBD10B50446E06818B1CD
:10460000022803D1012104E0002102E0FCF720FB95
:104610000121D4F8040405F0C3FDD4F80404BDE876
:10462000104005F065BD0000D0F8040405F094BD0D
:10463000D0F8040405F09CBD10B5044694F8BC0302
:10464000012802BF0220C0B210BD4FF0010084F863
:10465000BC0384F83810206806F082FA4FF000009E
:1046600084F8BC03C0B210BDD0F8042400F5717109
:10467000104605F0A5BD000010B50446D4F80404AA
:1046800005F0DAFD2068D0F8001E41F00101C0F805
:10469000001E206A00281FBF4EF61050CEF2000008
:1046A000016841F0060118BF016010BD0000000064
:1046B000B0B544F60C05C5F602052A68296812F063
:1046C000040F05D101F00701081A18BF0120B0BD81
:1046D00021F0070108432860FFF756FB044600BF9E
:1046E00055F8080C10F4005F1CBF0020B0BDFFF7A8
:1046F0004BFBA0EB0400B0F57A7F84BF0120B0BD76
:10470000EEE700000000000080B500F049FF44F231
:104710002041C5F602010968C1F3021146F698422C
:10472000C0F60102515C01F01F01C84080BD0000CD
:1047300080B544F2384CC5F6020C5CF810EC5CF81D
:10474000102C5CF80C1CDCF80430C1F30011494259
:1047500001EAD3016FF35F3100EE101AC2F30532A4
:10476000B8EE400A12B30EF00303022B2CD0012B3B
:1047700021D003BB9FED491A02EE102AB8EE422A5F
:104780005CF8381C20EE010A11F0200F68D1DCF82B
:1047900000106FF35F219FED431A03EE101AB8EE7D
:1047A000433A81EE022A30EE031A21E00021C0E9EB
:1047B0000011816080BDDCF8001001EE102A6FF35B
:1047C0005F219FED372A07E0DCF8001001EE102A88
:1047D0006FF35F219FED302A9FED303AB8EE414AEA
:1047E00001EE101AB8EE411A82EE042A00EE031A06
:1047F000DCF80010B7EE000AC1F3462131EE001AD2
:1048000003EE101AB8EE433A22EE011A33EE002AF4
:1048100081EE022ABCEEC22A80ED002ADCF80010EC
:10482000C1F3064102EE101AB8EE422A32EE002A17
:1048300081EE022ABCEEC22A80ED012ADCF80010CB
:10484000C1F3066102EE101AB8EE422A32EE000AF7
:1048500081EE000ABCEEC00A10EE101A816080BD25
:104860005CF8381CC1F3C10149F20002C0F2D03239
:1048700022FA01F1DCF800206FF35F2201EE102A2A
:1048800003EE101AB8EE411AB8EE433A30EE011AB0
:1048900083EE022AACE700BF0024744B000000390D
:1048A0000024744A0024744C80B544F2404CC5F690
:1048B000020C5CF818EC5CF8182C5CF8141CDCF8A2
:1048C0000430C1F30021494201EAD3016FF35F31A3
:1048D00000EE101AC2F30552B8EE400A12B30EF001
:1048E0000303022B2CD0012B21D003BB9FED491ACF
:1048F00002EE102AB8EE422A5CF8401C20EE010AB3
:1049000011F0200F68D1DCF800106FF35F219FEDEC
:10491000431A03EE101AB8EE433A81EE022A30EE43
:10492000031A21E00021C0E90011816080BDDCF89C
:10493000001001EE102A6FF35F219FED372A07E088
:10494000DCF8001001EE102A6FF35F219FED302A92
:104950009FED303AB8EE414A01EE101AB8EE411A16
:1049600082EE042A00EE031ADCF80010B7EE000A0B
:10497000C1F3462131EE001A03EE101AB8EE433AA5
:1049800022EE011A33EE002A81EE022ABCEEC22A80
:1049900080ED002ADCF80010C1F3064102EE101A87
:1049A000B8EE422A32EE002A81EE022ABCEEC22A7A
:1049B00080ED012ADCF80010C1F3066102EE101A46
:1049C000B8EE422A32EE000A81EE000ABCEEC00ABE
:1049D00010EE101A816080BD5CF8401CC1F3C1016B
:1049E00049F20002C0F2D03222FA01F1DCF80020D4
:1049F0006FF35F2201EE102A03EE101AB8EE411A8F
:104A0000B8EE433A30EE011A83EE022AACE700BF5B
:104A10000024744B000000390024744A0024744CB4
:104A20002DE9F04F81B00446E078000744F22C48AD
:104A3000C5F6020825D5206E4FEA305003280AD863
:104A4000DFE800F0020B1017D8F8000040F4003047
:104A5000C8F800000DE0012514E0201D022103F03C
:104A600043FD04E004F12400022103F0CDFD0546DE
:104A700045B9D8F82400216E20F440100843C8F846
:104A8000240000256078C00701D12E462AE0606D21
:104A900004280DD82E46DFE800F0030E1319190084
:104AA000D8F8000040F40030C8F800002E460DE0B1
:104AB0000126012717E0201D002103F015FD04E069
:104AC00004F12400002103F09FFD0646002E374626
:104AD00009D1D8F82400616D20F007000843C8F818
:104AE000240000262F46607840072CD5D4F8A0007B
:104AF0004FEA705005280BD8DFE800F0030D1218BC
:104B00001818D8F8000040F40030C8F800000DE094
:104B10000126012518E0201D002103F0E5FC04E03A
:104B200004F12400002103F06FFD0646002E3546F7
:104B30000AD1D8F82C00D4F8A01020F46000084363
:104B4000C8F82C0000263D46607800072CD5D4F824
:104B5000A4004FEA306005280BD8DFE800F0030D11
:104B600012181818D8F8000040F40030C8F80000F7
:104B70000DE00126012718E0201D002103F0B4FC00
:104B800004E004F12400002103F03EFD0646002E5F
:104B900037460AD1D8F82C00D4F8A41020F0E060F1
:104BA0000843C8F82C0000262F46E078800723D55C
:104BB000A06C4FEA301003280AD8DFE800F0110299
:104BC0000C11D8F8000040F40030C8F8000007E0ED
:104BD0000126012511E0201D022103F085FC064677
:104BE000002E354609D1D8F82000A16C20F0300005
:104BF0000843C8F8200000263D466078C0062AD544
:104C0000A06D4FEA303004280BD8DFE800F0030D28
:104C100012181800D8F8000040F40030C8F800005E
:104C20000DE00126012717E0201D002103F05CFCA8
:104C300004E004F12400002103F0E6FC0646002E07
:104C4000374609D1D8F82400A16D20F4E04008438C
:104C5000C8F8240000262F466078800623D5E06D32
:104C60004FEA3040052809D8DFE800F011030B11A6
:104C70001111201D012103F037FC07E00126012559
:104C800012E004F12400012103F0BEFC0646002ED0
:104C9000354609D1D8F82400E16D20F4E02008431E
:104CA000C8F8240000263D466078400625D5D4F893
:104CB000A8004FEA3070052809D8DFE800F011039A
:104CC0000B111111201D012103F00EFC07E001263C
:104CD000012713E004F12400012103F095FC0646AE
:104CE000002E37460AD1D8F82C00D4F8A81020F0AE
:104CF000E0400843C8F82C0000262F4660780006E4
:104D00001FD5A06E88B1B0F1005F09D0B0F1805F0F
:104D100029D1D8F8000040F40030C8F8000004E0C1
:104D2000201D012103F0E0FB0646002E354609D187
:104D3000D8F82400A16E20F040500843C8F82400A1
:104D400000263D46E078C00725D0606C03280DD8CA
:104D5000DFE800F015021015D8F8000040F400302C
:104D6000C8F800000BE001260125EBE701264FF013
:104D7000010911E0201D022103F0B6FB0646002EBA
:104D8000B14609D1D8F82000616C20F00300084337
:104D9000C8F820000026A946A078400602D435466F
:104DA0004F4619E0D8F8D40340F48070C8F8D40313
:104DB000FEF7EAFF054600BFD8F8D40310F4807F61
:104DC00007D1FEF7E1FF401B6428F5D9032503272F
:104DD00002E09EB1354637462078C00758D0606F54
:104DE0004FEAF00005283ED8DFE800F046034046D1
:104DF0004646201D012103F077FB3CE0D8F8441023
:104E0000D4F8AC00414011F4407F13D0D8F84400EE
:104E1000D8F8441041F48031C8F84410D8F8441050
:104E200021F48031C8F8441020F44070C8F84400E0
:104E3000D4F8AC00B0F5807F40F01882FEF7A4FFF4
:104E4000824641F2883B0325032700BFD8F844007F
:104E500010F0020F40F00582FEF796FFA0EB0A006B
:104E60005845F3D9B8E70125012612E004F12400E2
:104E7000012103F0C9FB0546002D2E4609D1D8F8C3
:104E80002800616F20F038000843C8F8280000258A
:104E90003E462078800721D5206F052809D8DFE815
:104EA00000F011030B111111201D012103F01CFB57
:104EB00007E00125012712E004F12400012103F09D
:104EC000A3FB0546002D2F4609D1D8F82800216FF5
:104ED00020F007000843C8F828000025374620784E
:104EE000400723D5D4F88C00052809D8DFE800F066
:104EF00011030B111111201D012103F0F5FA07E038
:104F00000125012613E004F12400012103F07CFBBC
:104F10000546002D2E460AD1D8F82C00D4F88C1066
:104F200020F007000843C8F82C0000253E462078F2
:104F3000800625D5D4F888004FEA3070052809D8B6
:104F4000DFE800F011030B111111201D002103F007
:104F5000CBFA07E00125012713E004F12400022128
:104F600003F052FB0546002D2F460AD1D8F8280041
:104F7000D4F8881020F0E0400843C8F82800002545
:104F800037462078400625D5D4F894004FEAB02063
:104F9000052809D8DFE800F011030B111111201DBD
:104FA000002103F0A1FA07E00125012613E004F136
:104FB0002400022103F028FB0546002D2E460AD1CD
:104FC000D8F82C00D4F8941020F4E0500843C8F826
:104FD0002C0000253E462078000625D5D4F8980000
:104FE0004FEA7030052809D8DFE800F011030B11F3
:104FF0001111201D002103F077FA07E00125012798
:1050000013E004F12400022103F0FEFA0546002D0E
:105010002F460AD1D8F82C00D4F8981020F460401C
:105020000843C8F82C00002537462078000713D520
:10503000E06FB0F5805F07D104F12400022103F096
:10504000E3FA002818BF0127D8F82800E16F20F400
:1050500040500843C8F828002078C00615D5D4F879
:105060009000B0F5807F07D104F12400022103F005
:10507000CBFA002818BF0127D8F82C00D4F89010DC
:1050800020F440700843C8F82C00A078000720D511
:10509000D4F89C00B0F5003F0ED0B0F5803F05D0AD
:1050A00070BB201D002103F01FFA04E004F124006E
:1050B000022103F0A9FA0546002D2E460AD1D8F8A0
:1050C0002C00D4F89C1020F440300843C8F82C0081
:1050D00000253E46A078400728D5D4F88000B0F5DA
:1050E000401F16D0B0F5001F0DD0B0F5801F40F066
:1050F000B380D8F8000040F40030C8F8000008E0A1
:1051000001250126E6E704F12400012103F07CFAE1
:105110000546002D2F460AD1D8F82800D4F8801073
:1051200020F440100843C8F8280000253746A0782E
:10513000C00701D13E461FE0E06CB0F5803F07D0CC
:10514000C0B9D8F8000040F40030C8F8000004E00E
:10515000201D022103F0C8F90546002D2E460BD173
:10516000D8F82000E16C20F480300843C8F8200013
:105170000025DFE701250126E078800607D504F148
:105180002400022103F040FA002818BF0126A0786D
:1051900080071AD5A06F6FF0010101EB30210229C1
:1051A0000AD34FEA302038B1012858D1D8F800008E
:1051B00040F40030C8F8000045B9D8F82800A16FC5
:1051C00020F440700843C8F828003546A078C0068F
:1051D00007D5D8F82400E16E20F000400843C8F855
:1051E0002400A078800607D5D8F82400616E20F04E
:1051F00080700843C8F82400206810F0804F0DD05C
:1052000058F81C0C20F4004048F81C0CD4F8B000EE
:1052100058F81C1C084348F81C0C2068B0F1FF3FEC
:1052200007DCD8F82000216D20F040500843C8F872
:105230002000A078000608D5D8F82800D4F88410FB
:1052400020F440000843C8F82800002D18BF0125AD
:10525000284601B0BDE8F08F0125012767E7012549
:10526000B4E7002E354637467FF4B6ADD4F8AC101F
:1052700058F81C0C20F47C5001F44072B2F5407FC9
:1052800001BF4FF6CF72C0F2FF0202EA11110843CC
:1052900048F81C0CD4F8AC00D8F844106FF31F3059
:1052A00040EA0100C8F844004FF0000578E500002E
:1052B00070470000000000002DE9F04381B08946EE
:1052C0000446002C76D042F20008C5F20028D8F837
:1052D000000000F00F0048450DD2D8F8000020F083
:1052E0000F0040EA0900C8F80000D8F8000000F0FC
:1052F0000F00484560D12078400744F21847C5F6B2
:1053000002070AD52069396801F07001884281BF1F
:10531000396821F0700108433860207800070AD509
:105320006069796801F07001884281BF796821F075
:105330007001084378602078C0060AD5A0697968B2
:1053400001F4E061884281BF796821F4E06108439B
:105350007860207880060AD5E069B96801F07001AC
:10536000884281BFB96821F070010843B860207895
:1053700080070AD5E068396801F00F01884281BFD3
:10538000396821F00F01084338602078C00744D005
:105390003868A16820F470600843386060680328AA
:1053A0000CD0022811D157F8180C10F4003F18D176
:1053B0000120B6E00120B4E00120B2E057F8180C5B
:1053C00010F0007F0DD10120ABE057F8181C012828
:1053D00003D1C80505D40120A3E0480701D401206A
:1053E0009FE057F8080C616820F00700084347F871
:1053F000080CFEF7C9FC064641F2883557F8080C40
:10540000616800F03800B0EBC10F06D0FEF7BCFCBD
:10541000801BA842F2D9032083E0207880070AD5B8
:10542000E068396801F00F0188423FBF396821F018
:105430000F0108433860D8F8000000F00F0048451D
:105440000DD9D8F8000020F00F0040EA0900C8F894
:105450000000D8F8000000F00F00484560D1207827
:1054600040070AD52069396801F0700188423FBFC2
:10547000396821F0700108433860207800070AD5A8
:105480006069796801F0700188423FBF796821F056
:105490007001084378602078C0060AD5A069796851
:1054A00001F4E06188423FBF796821F4E06108437C
:1054B0007860207880060AD5E069B96801F070014B
:1054C00088423FBFB96821F070010843B86000F01E
:1054D000B7F83968C1F3032146F69842C0F60102D5
:1054E000515C01F01F01C840396801F00F01515CA7
:1054F00001F01F0120FA01F140F23422C2F2004211
:10550000116040F23021C2F20041086041F23820BF
:10551000C2F20040006801B0BDE8F043FEF788BC6D
:105520000120C0B201B0BDE8F0830000000000001F
:1055300044F20040C5F60200016841F40021016018
:1055400070470000000000003F22026044F2184251
:10555000C5F6020252F8083C03F0070343601368E3
:1055600003F470638360136803F00F03C360136870
:1055700003F070030361536803F0700343615368E1
:1055800003F4E0638361926802F07002C26142F248
:105590000000C5F20020006800F00F0008607047AE
:1055A00080B500F04DF844F21841C5F602010A68D2
:1055B000C2F3032246F69843C0F601039A5C02F058
:1055C0001F0220FA02F2086800F00F00185C00F0D9
:1055D0001F0022FA00F040F23421C2F200410860BC
:1055E00040F23021C2F200410A6080BD000000009C
:1055F00080B5FFF7D5FF44F21C41C5F602010968EA
:10560000C1F3021146F69842C0F60102515C01F066
:105610001F01C84080BD000080B5FFF7C1FF44F204
:105620001C41C5F602010968C1F3022146F6984201
:10563000C0F60102515C01F01F01C84080BD0000AE
:1056400080B544F2304EC5F6020E5EF8200CC0F371
:10565000C20249F20000C0F2D030032A14D0022A5C
:105660004ED0002A1EBF40F60010C0F23D0080BDA3
:105670005EF8302C12F0200F1FBF5EF8301CC1F313
:10568000C101C84080BD80BD5EF808CC5EF8082C22
:105690005EF8043CDEF8041003F001035B4203EA09
:1056A000D1016FF35F31C2F3051200EE101AB8EEAC
:1056B000400A002A04BF002080BD0CF00303022B27
:1056C0002CD0012B21D003BB9FED351A02EE102AFE
:1056D000B8EE422A5EF8301C20EE010A11F0200FCD
:1056E00046D1DEF800006FF35F209FED2F1A03EE26
:1056F000100AB8EE433A81EE022A30EE031A21E096
:1057000042F20040C0F2F40080BDDEF8000001EE7D
:10571000102A6FF35F209FED232A07E0DEF80000D8
:1057200001EE102A6FF35F209FED1C2A9FED1C3ABB
:10573000B8EE414A01EE100AB8EE411A82EE042A90
:1057400000EE031ADEF80000B7EE000AC0F34620B0
:1057500031EE000A013022EE000A01EE100AB8EE26
:10576000411A80EE010ABCEEC00A10EE100A80BD9C
:105770005EF8301CC1F3C101C840DEF800106FF3C1
:105780005F2101EE101A03EE100AB8EE411AB8EECE
:10579000433A30EE011A83EE022AD3E70024744B19
:1057A000000000390024744A0024744C00000000FA
:1057B00010B544F26444C5F60204206810F4806F0A
:1057C00008BF10BDFFF774FD4FF48060606010BD2E
:1057D000F0B581B0044614B32078C00744F2004607
:1057E000C5F602064FD03169B06A01F038011029C0
:1057F00019D0182904BF00F00300022813D06068F4
:10580000C8B1B0F5803F06D03168B0F5A02F16D1F1
:1058100041F480203060306840F4803015E0012091
:10582000C0B201B0F0BD306810F4003F2BD060680A
:1058300048BB0120F4E7306820F4803001E021F417
:1058400080303060306820F4802030606768FEF778
:105850009BFA054667B100BF306810F4003F12D1D3
:10586000FEF792FA401B6428F6D90320D8E700BF60
:10587000306810F4003F06D0FEF786FA411B032083
:105880006429F5D9CCE7207880072FD53169B06A33
:1058900011F038011BD0182908BF5FEA807016D0BC
:1058A000E0683168002800F0E08021F01901084329
:1058B0003060FEF769FA0546306810F0040F0ED12B
:1058C000FEF762FA401B0228F6D90320A8E73068E9
:1058D00010F0040F03D0E068002800F00F8170681A
:1058E000216920F0FE4040EA016070602078C00627
:1058F00030D53169B06A01F0380108291BD0182968
:1059000004BF00F00300012815D0E16930680029C8
:1059100000F0E28040F080003060FEF735FA054686
:10592000306810F4807F0ED1FEF72EFA401B02285B
:10593000F6D9032074E7306810F4807F1CBFE0695B
:10594000802840F0A580F068216A20F07C5040EA71
:105950000160F0602078000725D56169706F81B122
:1059600040F001007067FEF70FFA0546706F10F007
:10597000020F18D1FEF708FA401B0228F6D90320BF
:105980004EE720F001007067FEF7FEF9054600BF04
:10599000706F10F0020F06D0FEF7F6F9401B0228D8
:1059A000F6D903203CE72078800626D5A169306827
:1059B00089B140F480503060FEF7E6F9054600BF3B
:1059C000306810F4005F18D1FEF7DEF9401B0228A2
:1059D000F6D9032024E720F480503060FEF7D4F994
:1059E000054600BF306810F4005F06D0FEF7CCF922
:1059F000411B03200229F5D912E7207840070ED475
:105A0000676A002F00F00A81306900F0380018281A
:105A100040D1B16A306B012F72D1012000E7D6F876
:105A2000000440F48070C6F80004FEF7ADF90546A6
:105A3000D6F8000410F4807F06D1FEF7A5F9401BCC
:105A40006428F5D90320EBE6A068002800F08280E6
:105A5000012806D0316F052840F0E48041F00400B1
:105A60003067306F40F00100E2E021F0010030606B
:105A7000FEF78AF9054600BF306810F0040F3FF4C6
:105A800035AFFEF781F9411B03200229F4D9C7E69F
:105A90000120C5E6306820F080703060FEF774F9B0
:105AA0000546022F0CD100BF306810F0007F55D0A2
:105AB000FEF76AF9411B03200229F5D9B0E600BFC1
:105AC000306810F0007F00F0A980FEF75DF9411BFF
:105AD00003200229F4D9A3E620F080003060FEF70D
