:020000040800F2
:10000000D0B90024E10200081181000879760008C7
:100010000981000851050008F1A000080000000057
:1000200000000000000000000000000051850008F2
:10003000510A00080000000051810008798500087D
:10004000FB020008FB020008FB020008FB0200089C
:10005000FB020008FB020008FB020008FB0200088C
:10006000FB020008FB020008FB02000891050008E3
:10007000A1050008B1050008C1050008D105000868
:10008000E1050008F1050008FB020008690A000804
:10009000790A0008FB020008FB020008FB020008C6
:1000A000FB02000831870008FB020008FB02000881
:1000B00041870008FB020008FB020008FB02000861
:1000C000FB020008FB020008FB020008F98300089D
:1000D000FB020008F98F0008199000083990000809
:1000E000FB020008FB02000800000000FB02000801
:1000F000FB020008FB020008FB02000801060008E2
:10010000FB020008FB020008FB020008FB020008DB
:10011000FB020008FB020008FB020008FB020008CB
:10012000110600082106000831060008FB0200083D
:10013000FB020008FB020008FB020008FB020008AB
:1001400000000000000000000000000000000000AF
:10015000FB020008FB020008FB020008599000089F
:10016000FB020008FB020008298100081981000831
:10017000FB02000839810008FB02000800000000B3
:10018000FB020008FB020008FB020008FB0200085B
:10019000FB020008FB020008FB020008FB0200084B
:1001A000FB020008FB020008FB0200080000000040
:1001B000FB020008FB020008FB020008FB0200082B
:1001C000FB020008FB020008000000000000000025
:1001D0000000000000000000FB020008000000001A
:1001E000000000000000000000000000000000000F
:1001F0000000000000000000FB020008FB020008F5
:10020000FB020008FB02000800000000FB020008DF
:10021000FB020008FB020008FB020008FB020008CA
:10022000FB02000800000000FB02000800000000C4
:10023000FB020008FB02000800000000FB020008AF
:10024000FB020008FB020008FB020008FB0200089A
:10025000FB020008FB020008FB020008FB0200088A
:10026000FB020008FB020008FB020008FB0200087A
:10027000FB020008FB020008FB020008000000006F
:10028000FB020008FB020008FB020008FB0200085A
:1002900000000000FB020008FB0200080000000054
:1002A00000000000FB020008FB020008FB0200083F
:1002B000D98F0008FB020008FB020008890A000829
:1002C000FB020008FB020008FB020008DFF80CD06C
:1002D00000F0BEF80048004799EF0008D0B90024AC
:1002E0000648804706480047FEE7FEE7FEE7FEE7D0
:1002F000FEE7FEE7FEE7FEE7FEE7FEE771860008A1
:10030000CD0200082DE9F05F0546002092469B468D
:1003100088460646814640241BE02846414647461B
:10032000224600F05AF853465A46C01A914110D35B
:1003300011461846224600F041F82D1A67EB0108D5
:100340004F4622460120002100F038F817EB000943
:100350004E41201EA4F10104DFDC484631462A4606
:100360004346BDE8F09F40EA01039B0703D009E044
:1003700008C9121F08C0042AFAD203E011F8013B91
:1003800000F8013B521EF9D27047D2B201E000F8EA
:10039000012B491EFBD270470022F6E710B5134629
:1003A0000A4604461946FFF7F0FF204610BD421CDE
:1003B00010F8011B0029FBD1801A7047202A04DBAA
:1003C000203A00FA02F1002070479140C2F1200368
:1003D00020FA03F3194390407047202A04DB203AA7
:1003E00021FA02F00021704721FA02F3D040C2F155
:1003F00020029140084319467047F0B400F00042D3
:1004000021F0004120F00040CE0DC30DC1F31601D4
:1004100041F40001C0F316004C42154640F40000C0
:10042000761E09E010EB440002D582F00042404203
:100430008842F7D840005B1EB342F9DA18B1F0BC2D
:10044000002100F026B82846F0BC70470020704715
:100450001CB509480090094801900546009C06E03B
:10046000E06840F0010394E8070098471034AC427C
:10047000F6D3FFF72FFF000098650108B865010863
:100480000029A8BF7047401C490008BF20F00100A8
:10049000704710B4B0FA80FC00FA0CF050EA010486
:1004A00004BF10BC704749B1CCF1200421FA04F418
:1004B00011FA0CF118BF012121430843A3EB0C01F1
:1004C000CB1D4FEA00614FEA102042BF002010BC54
:1004D000704700EBC35010440029A4BF10BC704704
:1004E000401C490008BF20F0010010BC704770B5E7
:1004F0008D1810F8014B14F0030201D110F8012BF4
:10050000231106D110F8013B03E010F8016B01F84C
:10051000016B521EF9D1ABB110F8012B04F00C04A1
:100520008A1A0C2C03D0A2EB84129B1C08E010F852
:10053000014BA2EB0422F8E712F8014B01F8014B42
:100540005B1EF9D5A942D4D3002070BD0000000085
:10055000FEE700000000000041F22462C2F2004207
:10056000D2F8BC22D2F81422002A1CBF0120704706
:1005700010B541F224640A46C2F200440146204606
:1005800008F07AFD2046BDE8104008F081BD00006B
:1005900041F64C30C2F2004000F0C6BE0000000040
:1005A00041F6C430C2F2004000F0BEBE00000000C0
:1005B00041F65C20C2F2004000F0B6BE0000000030
:1005C00041F6D420C2F2004000F0AEBE00000000B0
:1005D00041F6A450C2F2004000F0A6BE00000000A8
:1005E00041F63C40C2F2004000F09EBE0000000018
:1005F00041F6B440C2F2004000F096BE0000000098
:1006000041F62C50C2F2004000F08EBE0000000007
:1006100041F66C10C2F2004000F086BE00000000FF
:1006200041F6E410C2F2004000F07EBE000000007F
:1006300041F6F400C2F2004000F076BE0000000077
:1006400040F20F42D0F800C0C4F20202944510DC20
:100650006F22C4F20202944520DC3F22C4F202025F
:10066000944536DC1022C4F20202944554D028226C
:100670004EE040F26F42C4F2020294451ADC40F2AE
:100680003F42C4F2020294452ADC40F21042C4F216
:100690000202944540D040F2284239E09F22C4F241
:1006A0000202944525DC7022C4F20202944533D044
:1006B00088222DE040F29F42C4F2020294451FDCE2
:1006C00040F27042C4F20202944525D040F28842C2
:1006D0001EE04022C4F2020294451DD0582217E0C9
:1006E00040F24042C4F20202944515D040F2584212
:1006F0000EE0A022C4F2020294450DD0B82207E019
:1007000040F2B842C4F20202944505D040F2A04241
:10071000C4F20202944517D10CF0F8024AF6AB235A
:10072000103ACAF6AA23A2FB033109A35F2AC1F338
:1007300002115B5C40F2FF312CEA0101C36588BF06
:1007400004318165084670472CF0FF01F9E700BFCE
:10075000000610160006101670B540F26F44D0F86F
:1007600000C0C4F20204D0F858E0A44519DC9F256B
:10077000C4F20205AC4531DC5725C4F20205AC4594
:1007800056DC1025C4F20205AC4500F09280282505
:10079000C4F20205AC4500F08C804025C4F202058D
:1007A00084E045F22F45C5F60205AC452BDC40F24E
:1007B000B745C4F20205AC4548DC40F27045C4F2CE
:1007C0000205AC4575D040F28845C4F20205AC453F
:1007D0006FD040F2A045C4F2020567E040F2274521
:1007E000C4F20205AC4540DCA025C4F20205AC45CC
:1007F0005FD0B825C4F20205AC455AD040F210458E
:10080000C4F2020552E045F26B45C5F60205AC455F
:100810003CDC45F23045C5F60205AC4549D045F211
:100820004445C5F60205AC4543D045F258453BE08A
:100830005825C4F20205AC453BD07025C4F2020530
:10084000AC4536D08825C4F202052FE040F2B84509
:10085000C4F20205AC452CD045F20845C5F60205A8
:10086000AC4526D045F21C451EE040F22845C4F2B6
:100870000205AC451DD040F24045C4F20205AC452E
:1008800017D040F25845C4F202050FE045F26C451E
:10089000C5F60205AC450CD045F29445C5F60205F7
:1008A000AC4506D045F28045C5F60205AC4540F0A2
:1008B000CC80456EC66E002E866E6E601CBFD0E981
:1008C0001C566E60A44515DC9F24C4F20204A445A6
:1008D0002BDC5724C4F20204A4454EDC1024C4F2DD
:1008E0000204A44576D02824C4F20204A44571D0A1
:1008F00040246BE045F22F44C5F60204A44527DCF2
:1009000040F2B744C4F20204A44542DC40F2704411
:10091000C4F20204A4455DD040F28844C4F202044B
:10092000A44557D040F2A04450E040F22744C4F21E
:100930000204A4453CDCA024C4F20204A44549D02E
:10094000B824C4F20204A44544D040F210443DE06F
:1009500045F26B44C5F60204A44553DC45F230442D
:10096000C5F60204A4455FD045F24444C5F602042E
:10097000A44559D045F2584452E05824C4F2020428
:10098000A44527D07024C4F20204A44522D08824B0
:100990001CE040F2B844C4F20204A4451AD045F267
:1009A0000844C5F60204A4453ED045F21C4437E095
:1009B00040F22844C4F20204A4450BD040F2404463
:1009C000C4F20204A44505D040F25844C4F2020423
:1009D000A4453AD18468C06D00F01F003F2505FA98
:1009E00000F0CEF80800DCF80000402C20F4802055
:1009F000CCF80000CCF8043023D1CCF80820CCF897
:100A00000C1070BD45F26C44C5F60204A4450BD031
:100A100045F28044C5F60204A44505D045F294444D
:100A2000C5F60204A44510D1C46D012504F01F04CD
:100A3000806805FA04F4CEF804404028CCF804306D
:100A4000DBD0CCF80810CCF80C2070BD0000000002
:100A50007047000000000000EFF3108072B600BF86
:100A6000FEE700000000000041F63060C2F20040E6
:100A700002F03EB80000000041F6D060C2F2004033
:100A800002F036B80000000041F67070C2F200407B
:100A900002F02EB800000000F0B5D1E900C4D1F892
:100AA00008E00D692CB14EEA0C04254345F0804C5A
:100AB00003E045EA8C4444EA0E0C856ED0F884705D
:100AC000D1E907466B438D6944EA0660D1F814E02A
:100AD0000543CC6807EB830045EA0E0647F823C0C0
:100AE00046EA04034360CB68B3F5803F38BFF0BDEE
:100AF00045F6EA2C083001320023C0F6010C00BF95
:100B0000D71857F8017CC750CF8904331CF80770F9
:100B1000BB42F5D3F0BD000010B52DED048B90ED78
:100B2000030A9FED151A81EE001A90ED012A90ED4F
:100B3000050A044690ED049AA1EE020A13F0EEFDB8
:100B400094ED001A94ED012A32EE011AB0EE408ABB
:100B5000D4ED030AB0EE410A13F056FA94ED021AEE
:100B600084ED010A09EE081A84ED061AB0EE410A76
:100B7000BDEC048B10BD00BFDB0FC94000000000BE
:100B800000F1080280ED000A00214160C2EC040A75
:100B900081617047000000002DE9F041044602F039
:100BA00073FD14B3054694F83500022820D140F2B5
:100BB0000F472668C4F2020740F26F48BE426FF04A
:100BC0000E00C4F202081BDC6F21C4F202018E4247
:100BD00027DC3F21C4F202018E423DDC1021C4F229
:100BE00002018E425CD0282155E00120BDE8F08151
:100BF00080206065002084F834000120BDE8F08189
:100C000046451ADC40F23F41C4F202018E422ADC22
:100C100040F21041C4F202018E4241D040F228411C
:100C200039E09F21C4F202018E4225DC7021C4F21A
:100C300002018E4234D088212DE040F29F41C4F25F
:100C400002018E421FDC40F27041C4F202018E426A
:100C500026D040F288411EE04021C4F202018E42BB
:100C60001ED0582117E040F24041C4F202018E42EA
:100C700016D040F258410EE0A021C4F202018E428B
:100C80000ED0B82107E040F2B841C4F202018E4212
:100C900006D040F2A041C4F202018E42314607D193
:100CA0003146306820F01E0041F8140B6FF08000D0
:100CB0000A68464500EA0200086019DC9F20C4F279
:100CC0000200864231DC5720C4F20200864256DC24
:100CD0001020C4F20200864200F091802820C4F265
:100CE0000200864200F08B804020C4F2020084E0C3
:100CF00045F22F40C5F6020086422BDC40F2B74099
:100D0000C4F20200864248DC40F27040C4F20200A5
:100D1000864274D040F28840C4F2020086426ED00F
:100D200040F2A040C4F2020067E040F22740C4F263
:100D30000200864240DCA020C4F2020086425ED05F
:100D4000B820C4F20200864259D040F21040C4F2EA
:100D5000020052E045F26B40C5F6020086423CDCE0
:100D600045F23040C5F60200864248D045F2444084
:100D7000C5F60200864242D045F258403BE058207A
:100D8000C4F2020086423AD07020C4F202008642C9
:100D900035D08820C4F202002FE040F2B840C4F2FF
:100DA000020086422BD045F20840C5F6020086427A
:100DB00025D045F21C401EE040F22840C4F202005B
:100DC00086421CD040F24040C4F20200864216D057
:100DD00040F25840C4F202000FE045F26C40C5F604
:100DE000020086420BD045F29440C5F602008642CE
:100DF00005D045F28040C5F60200864204D1206E3F
:100E0000016821F480710160306820F001003060D9
:100E10003068C0070FD002F037FC401B0628F7D31C
:100E200020206065002084F83400032084F8350019
:100E30000120BDE8F08120680821B8424FF03F0250
:100E400010DC6F23C4F2020398421CDC3F23C4F27F
:100E50000203984232DC1023C4F20203984251D0BC
:100E600028234AE040451ADC40F23F43C4F2020323
:100E700098422ADC40F21043C4F20203984241D067
:100E800040F2284339E09F23C4F20203984225DC54
:100E90007023C4F20203984234D088232DE040F23C
:100EA0009F43C4F2020398421FDC40F27043C4F235
:100EB0000203984226D040F288431EE04023C4F249
:100EC000020398421ED0582317E040F24043C4F278
:100ED0000203984216D040F258430EE0A023C4F219
:100EE000020398420ED0B82307E040F2A043C4F2B8
:100EF0000203984206D040F2B843C4F2020398427B
:100F000040F0BE80D4E9163707F01F07404502FACB
:100F100007F25A5019DC9F21C4F20201884231DCE9
:100F20005721C4F20201884256DC1021C4F20201AA
:100F3000884200F091802821C4F20201884200F02A
:100F40008B804021C4F2020184E045F22F41C5F6B6
:100F5000020188422BDC40F2B741C4F20201884210
:100F600048DC40F27041C4F20201884274D040F281
:100F70008841C4F2020188426ED040F2A041C4F21E
:100F8000020167E040F22741C4F20201884240DCDE
:100F9000A021C4F2020188425ED0B821C4F202014D
:100FA000884259D040F21041C4F2020152E045F2A9
:100FB0006B41C5F6020188423CDC45F23041C5F682
:100FC0000201884248D045F24441C5F602018842F8
:100FD00042D045F258413BE05821C4F20201884218
:100FE0003AD07021C4F20201884235D08821C4F27F
:100FF00002012FE040F2B841C4F2020188422BD036
:1010000045F20841C5F60201884225D045F21C414F
:101010001EE040F22841C4F2020188421CD040F296
:101020004041C4F20201884216D040F25841C4F255
:1010300002010FE045F26C41C5F6020188420BD077
:1010400045F29441C5F60201884205D045F280413F
:10105000C5F6020188420BD1616EA26EE06E4A6055
:1010600030B1016821F480710160D4E91C01416054
:10107000002084F83400012184F83510BDE8F081A7
:10108000042101223EE70000F0B190F8351002295A
:1010900018D180B540F20F420168C4F202029142B9
:1010A00014DC6F23C4F20203994224DC3F23C4F210
:1010B000020399423ADC1023C4F20203994258D049
:1010C000282352E0802141650120704740F26F43A0
:1010D000C4F2020399421ADC40F23F43C4F2020315
:1010E00099422ADC40F21043C4F20203994240D0F4
:1010F00040F2284339E09F23C4F20203994225DCE1
:101100007023C4F20203994233D088232DE040F2C9
:101110009F43C4F2020399421FDC40F27043C4F2C1
:101120000203994225D040F288431EE04023C4F2D6
:10113000020399421DD0582317E040F24043C4F205
:101140000203994215D040F258430EE0A023C4F2A6
:10115000020399420DD0B82307E040F2B843C4F22D
:101160000203994205D040F2A043C4F2020399421F
:101170006ED191424FF0040280F8352010DC6F20D0
:10118000C4F20200814220DC3F20C4F2020081420E
:1011900036DC1020C4F20200814253D028204EE0F9
:1011A00040F26F40C4F2020081421ADC40F23F403C
:1011B000C4F2020081422ADC40F21040C4F2020074
:1011C00081423FD040F2284039E09F20C4F2020023
:1011D000814225DC7020C4F20200814232D0882096
:1011E0002DE040F29F40C4F2020081421FDC40F239
:1011F0007040C4F20200814224D040F288401EE0D8
:101200004020C4F2020081421CD0582017E040F276
:101210004040C4F20200814214D040F258400EE037
:10122000A020C4F2020081420CD0B82007E040F2B6
:10123000B840C4F20200814204D040F2A040C4F29F
:1012400002008142086820F001000860002080BD93
:101250000A6822F00E020A6045F25742C5F6020201
:1012600091420A6822F001020A600EDC45F22F4228
:10127000C5F60202914217DC45F20842C5F60202A9
:10128000914226D045F21C421FE045F27F42C5F64E
:101290000202914211DC45F25842C5F60202914227
:1012A00017D045F26C4210E045F23042C5F602021A
:1012B00091420ED045F2444207E045F29442C5F611
:1012C0000202914205D045F28042C5F602029142E7
:1012D0001AD1D0E9181CD0E916E30A6822F480720A
:1012E0000A6003F01F01012202FA01F1CEF8041096
:1012F000816ECCF80410C16E31B10A6822F480729C
:101300000A60D0E91C124A60002180F834100121E3
:1013100080F83510016D002998D08847002080BDE5
:10132000406D7047000000002DE9F04381B00021BE
:10133000009140F2302148F2B513C2F20041C1F6EB
:101340004E33856D40F26F490A680168C4F20209A4
:101350002E68A2FB032849452B6815DC9F22C4F2A6
:10136000020291422BDC5722C4F2020291424FDC6E
:101370001022C4F20202914278D02822C4F2020262
:10138000914273D040226CE045F22F42C5F6020232
:10139000914227DC40F2B742C4F20202914243DCA0
:1013A00040F27042C4F2020291425FD040F28842A1
:1013B000C4F20202914259D040F2A04251E040F200
:1013C0002742C4F2020291423DDCA022C4F2020292
:1013D00091424BD0B822C4F20202914246D040F270
:1013E00010423EE045F26B42C5F60202914275DCC6
:1013F00045F23042C5F60202914200F0828045F289
:101400004442C5F6020291427BD045F2584273E055
:101410005822C4F20202914228D07022C4F2020281
:10142000914223D088221CE040F2B842C4F202026A
:1014300091421BD045F20842C5F60202914260D0AB
:1014400045F21C4258E040F22842C4F202029142A6
:101450000CD040F24042C4F20202914206D040F267
:101460005842C4F20202914240F09A84C26D0823AD
:1014700002F01F029340334200F0168140F20F4405
:10148000C4F20204A1424FF0040413DC6F27C4F23B
:101490000207B94200F391803F27C4F20207B94224
:1014A00000F3D2801027C4F20207B94200F0F080A6
:1014B0002827E8E0494500F38C8040F23F47C4F21A
:1014C0000207B94200F3C78040F21047C4F2020796
:1014D000B94200F0DD8040F22847D4E045F26C428A
:1014E000C5F6020291420CD045F28042C5F60202D6
:1014F000914206D045F29442C5F60202914240F074
:101500004F840E68C26D02F01F02042707FA02F42E
:101510001C4218BF16F004072CD1022707FA02F468
:101520001C4218BF16F0020762D1D3401B0740F1DE
:10153000378416F0080300F0338440F20F43C4F2FE
:10154000020399426FF01C0300F31E836F27C4F25D
:101550000207B94200F35A833F27C4F20207B94297
:1015600000F3BC831027C4F20207B94200F0DB830A
:101570002827D2E332046C605ED4B20600F1A78360
:1015800040F20F42C4F2020291426FF0080200F3EF
:10159000E9826F23C4F20203994200F308833F23D8
:1015A000C4F20203994200F34D831023C4F20203F4
:1015B000994200F08983282380E39F27C4F2020721
:1015C000B94251DC7027C4F20207B94260D08827C3
:1015D00059E040F29F47C4F20207B9424BDC40F2A7
:1015E0007047C4F20207B94252D040F288474AE03D
:1015F00032046C6000F1A282B20600F1CE8340F2A8
:101600000F42C4F2020291426FF0140200F3DC8236
:101610006F23C4F20203994200F31B833F23C4F2F9
:101620000203994200F38B831023C4F20203994210
:1016300000F0AA832823A1E3F10300F14883816C21
:10164000002940F04783ABE34027C4F20207B942C8
:101650001ED0582717E040F24047C4F20207B942B3
:1016600016D040F258470EE0A027C4F20207B94254
:101670000ED0B82707E040F2A047C4F20207B942F3
:1016800006D040F2B847C4F20207B94218BF082496
:101690000F68274208D00F6827F004070F60AB607F
:1016A000436D43F0010343650123934033426FD000
:1016B00040F20F47C4F20207B94210DC6F27C4F2B0
:1016C0000207B9421CDC3F27C4F20207B94232DCF0
:1016D0001027C4F20207B94251D028274AE04945F1
:1016E0001ADC40F23F47C4F20207B9422ADC40F25A
:1016F0001047C4F20207B94241D040F2284739E00E
:101700009F27C4F20207B94225DC7027C4F2020702
:10171000B94234D088272DE040F29F47C4F2020737
:10172000B9421FDC40F27047C4F20207B94226D02A
:1017300040F288471EE04027C4F20207B9421ED09B
:10174000582717E040F24047C4F20207B94216D0CA
:1017500040F258470EE0A027C4F20207B9420ED06B
:10176000B82707E040F2B847C4F20207B94206D0F2
:1017700040F2A047C4F20207B94240F0E7814F6946
:1017800007F0800424B1AB60436D43F0020343656E
:101790000423934033426FD040F20F47C4F2020754
:1017A000B94210DC6F27C4F20207B9421CDC3F27A4
:1017B000C4F20207B94232DC1027C4F20207B94270
:1017C00051D028274AE049451ADC40F23F47C4F28D
:1017D0000207B9422ADC40F21047C4F20207B942BC
:1017E00041D040F2284739E09F27C4F20207B942AE
:1017F00025DC7027C4F20207B94234D088272DE0D7
:1018000040F29F47C4F20207B9421FDC40F2704722
:10181000C4F20207B94226D040F288471EE04027B2
:10182000C4F20207B9421ED0582717E040F24047E1
:10183000C4F20207B94216D040F258470EE0A02782
:10184000C4F20207B9420ED0B82707E040F2B84709
:10185000C4F20207B94206D040F2A047C4F2020720
:10186000B94240F079810F6807F0020424B1AB60FF
:10187000436D43F004034365102303FA02F232423E
:101880007ED040F20F43C4F2020399424FF00803A6
:1018900010DC6F27C4F20207B9421CDC3F27C4F2F8
:1018A0000207B94232DC1027C4F20207B94251D014
:1018B00028274AE049451ADC40F23F47C4F20207B4
:1018C000B9422ADC40F21047C4F20207B94241D0C3
:1018D00040F2284739E09F27C4F20207B94225DCCD
:1018E0007027C4F20207B94234D088272DE040F2B5
:1018F0009F47C4F20207B9421FDC40F27047C4F2AE
:101900000207B94226D040F288471EE04027C4F2C1
:101910000207B9421ED0582717E040F24047C4F2F0
:101920000207B94216D040F258470EE0A027C4F291
:101930000207B9420ED0B82707E040F2A047C4F230
:101940000207B94206D040F2B847C4F20207B942D2
:1019500018BF04230F681F4212D0AA600A685203FE
:101960000A6806D4D20506D40A6822F008020A6082
:1019700001E0110352D4016C11B10446884720469E
:10198000C16D01F01F02202101FA02F3334200F081
:10199000AC8040F20F470168C4F202071026B9423A
:1019A00010DC6F27C4F20207B9421CDC3F27C4F2E7
:1019B0000207B94236DC1027C4F20207B94255D0FB
:1019C00028274EE049451ADC40F23F47C4F202079F
:1019D000B9422EDC40F21047C4F20207B94245D0AA
:1019E00040F228473DE09F27C4F20207B94229DCB4
:1019F0007027C4F20207B94238D0882731E040F29C
:101A00009F47C4F20207B94223DC40F27047C4F298
:101A10000207B9422AD040F2884722E0816C0029AF
:101A2000ABD1ADE74027C4F20207B9421ED0582718
:101A300017E040F24047C4F20207B94216D040F224
:101A400058470EE0A027C4F20207B9420ED0B827CB
:101A500007E040F2A047C4F20207B94206D040F2C4
:101A6000B847C4F20207B94218BF02260F683742CE
:101A70003BD0AB6090F83530042B0B681CD123F0C1
:101A800016030B604B6923F080034B61036C0BB9A9
:101A9000836C1BB10B6823F008030B603F2191405E
:101AA000A960002180F83410012180F83510016D03
:101AB000002940F00F8173E15A030A680CD4D20563
:101AC0000ED40A6822F010020A60002180F8341057
:101AD000012180F8351003E0110301D4416C00E0CE
:101AE000C16B11B1044688472046416D002900F0C2
:101AF0005781416DC9071CD0042180F83510016859
:101B00004FEA98220B6823F001030B60009B01331E
:101B10000093934202D80B68DB07F7D1002280F8CC
:101B200034200968C9074FF0030108BF012180F87C
:101B30003510C16C002940F0CD8031E1F10300F196
:101B40002C81416C002940F0C58029E100240F68F8
:101B5000002C7FF418AE1BE600240F68002C7FF4E5
:101B600086AE89E6494542DC40F23F43C4F20203B7
:101B700099427CDC40F21043C4F20203994200F027
:101B8000A38040F2284399E049454CDC40F23F47AE
:101B9000C4F20207B94200F3A88040F21047C4F231
:101BA0000207B94200F0BF8040F22847B5E09F230A
:101BB000C4F20203994263DC7023C4F20203994227
:101BC00000F08280882379E0494560DC40F23F43A1
:101BD000C4F20203994200F3B98040F21043C4F208
:101BE0000203994200F0D08040F22843C6E040F260
:101BF0009F43C4F20203994258DC40F27043C4F29E
:101C00000203994260D040F2884357E09F27C4F214
:101C10000207B94272DC7027C4F20207B94200F031
:101C20008280882779E040F29F47C4F20207B942D8
:101C30006BDC40F27047C4F20207B94273D040F245
:101C400088476AE04023C4F2020399423CD05823FB
:101C500034E09F23C4F20203994200F38080702392
:101C6000C4F20203994200F08F80882386E040F29C
:101C70004043C4F20203994226D040F258431DE08B
:101C8000A023C4F2020399421ED0B82316E040F20A
:101C90009F43C4F20203994268DC40F27043C4F2ED
:101CA0000203994270D040F2884367E040F2A043BB
:101CB000C4F20203994207D040F2B843C4F20203CF
:101CC000994218BF6FF004020B681A400A60016C59
:101CD000002965D001B0BDE8F04308474027C4F2B1
:101CE0000207B9421FD0582717E040F24047C4F21C
:101CF0000207B94217D040F258470EE0A027C4F2BD
:101D00000207B9420FD0B82707E040F2A047C4F25B
:101D10000207B94207D040F2B847C4F20207B942FD
:101D200018BF6FF00E030F683B400B60012101FAF2
:101D300002F26A604165002280F83420F7E6402311
:101D4000C4F2020399421FD0582317E040F24043E7
:101D5000C4F20203994217D040F258430EE0A02388
:101D6000C4F2020399420FD0B82307E040F2A04327
:101D7000C4F20203994207D040F2B843C4F202030E
:101D8000994218BF6FF00A020B681A400A600021DE
:101D900080F83410012180F83510C16B002999D1E9
:101DA00001B0BDE8F08300002DE9F041044601F0E8
:101DB0006BFCECB140F26F4805462068C4F20208A3
:101DC000404518DC9F21C4F2020188422EDC5721D5
:101DD000C4F20201884254DC1021C4F2020188429C
:101DE0007ED02821C4F20201884279D0402172E0DD
:101DF0000120BDE8F08145F22F41C5F6020188427D
:101E000027DC40F2B741C4F20201884245DC40F2CF
:101E10007041C4F20201884262D040F28841C4F2AB
:101E2000020188425CD040F2A04154E040F22741D8
:101E3000C4F20201884240DCA021C4F202018842BF
:101E40004ED0B821C4F20201884249D040F210417C
:101E500041E045F26B41C5F60201884200F3B880CB
:101E600045F23041C5F60201884200F0C38045F2D8
:101E70004441C5F60201884200F0BC8045F2584159
:101E8000B4E05821C4F20201884229D07021C4F282
:101E90000201884224D088211DE040F2B841C4F2FA
:101EA000020188421CD045F20841C5F60201884271
:101EB00000F0A08045F21C4198E040F22841C4F2B5
:101EC000020188420CD040F24041C4F20201884233
:101ED00006D040F25841C4F20201884240F0CE8060
:101EE000002184F83410022184F83510016821F0B3
:101EF0000101016020680168C9070CD001F0C4FB32
:101F0000401B0628F6D320206065032084F83500A6
:101F10000120BDE8F08148F23F0204F108070168A2
:101F2000CFF61062114066698CCF1143D4F818C007
:101F30001943E3693943276A0E43616A334304292D
:101F400043EA070343EA0C0303D1D4E90B76374392
:101F50003B436568A5F12906292E00F2A1800127DF
:101F6000DFE806F01515151515159E9E9E9E9E9E82
:101F70009E9E9E9E9E9E9E9E9E9E151515159E9EA5
:101F80009E9E15159E9E9E9E9E9E15151515002FB4
:101F900018BF43F4801304290360426922F007024A
:101FA00041EA020140F09080D4E90A53002B41EA53
:101FB000050100F08980BCF5005F61D0BCF1000F25
:101FC0006AD1022D74D0012D60D0002D70D072E046
:101FD00045F26C41C5F6020188420BD045F28041C2
:101FE000C5F60201884205D045F29441C5F60201CA
:101FF000884243D104F1080E002184F834100221F4
:1020000084F835100168A3699EE80450A2F18005A8
:10201000E769B5FA85F566696D09402A4FEA8535A5
:1020200043EA07026FF3101142EA060208BF1025C7
:1020300041EADC0142EA0E022943236A41EAD20165
:102040004AF6F832CAF2FD724CF6CD470244CCF69D
:10205000CC4741EA1311A2FB072301606FF0030094
:1020600000EA9300E0652046FEF7EAFAE16D0122FE
:1020700001F01F0102FA01F1416030E0402043E726
:10208000032D18D8DFE805F00A140A02A3F1C07284
:10209000B2FA82F252090FE0032D08D201220BE0BE
:1020A00025F00302743AB2FA82F257096FE702D1BF
:1020B000C3F3006200E0002232B1402060650120DD
:1020C00084F83500BDE8F08141612046FEF7B8FA9A
:1020D000E16D3F2201F01F0102FA01F181602068E9
:1020E000404519DC9F21C4F20201884231DC5721AE
:1020F000C4F20201884256DC1021C4F20201884277
:1021000000F092802821C4F20201884200F08C8005
:102110004021C4F2020184E045F22F41C5F60201DC
:1021200088422BDC40F2B741C4F20201884248DC0D
:1021300040F27041C4F20201884275D040F28841F9
:10214000C4F2020188426FD040F2A041C4F2020101
:1021500067E040F22741C4F20201884240DCA0213E
:10216000C4F2020188425FD0B821C4F20201884261
:102170005AD040F21041C4F2020152E045F26B41E4
:10218000C5F6020188423CDC45F23041C5F6020149
:10219000884249D045F24441C5F60201884243D005
:1021A00045F258413BE05821C4F2020188423BD03D
:1021B0007021C4F20201884236D08821C4F20201A3
:1021C0002FE040F2B841C4F2020188422CD045F21F
:1021D0000841C5F60201884226D045F21C411EE0A6
:1021E00040F22841C4F2020188421DD040F2404131
:1021F000C4F20201884217D040F25841C4F20201F1
:102200000FE045F26C41C5F6020188420CD045F260
:102210009441C5F60201884206D045F28041C5F6D8
:102220000201884240F0D08045F2574C45F6FC0E42
:10223000C5F6020CC5F6020E60450EDC45F22F43D2
:10224000C5F60203984217DC45F20843C5F60203BF
:10225000984226D045F21C431FE045F27F43C5F665
:102260000203984211DC45F25843C5F60203984236
:1022700017D045F26C4310E045F23043C5F6020337
:1022800098420ED045F2444307E045F29443C5F628
:102290000203984205D045F28043C5F602039842F6
:1022A00050D100F0FC034CF6CD47083BCCF6CC47B0
:1022B000A3FB0737AEF1FC05AEF17C063B0905EB4D
:1022C00083022266A26803F01F030127802A666644
:1022D00007FA03F2A26601D1002262606368A56E6C
:1022E000D4E91826DFB2591E07291760756015D882
:1022F0007E1E072E62D860450EF1440213DC45F2C3
:102300002F41C5F6020188423CDC45F20841C5F682
:10231000020188424BD045F21C4144E00020606736
:10232000C4E91B0050E045F27F41C5F60201884236
:1023300031DC45F25841C5F60201884237D045F2FA
:102340006C4130E000F0F8034AF6AB27103BCAF6C8
:10235000AA27A3FB073740F20F43C4F20203082564
:102360003E09984203F1AA02334688BF05EB1713D2
:1023700040F600059042C4F2020528BF334605F13D
:1023800080069CE745F23041C5F6020188420ED036
:1023900045F2444107E045F28041C5F6020188421A
:1023A00005D045F29441C5F60201884213D10EEBE7
:1023B0008300E06601202267B040606704F16C0290
:1023C000002307CA03604A6000206065012184F889
:1023D0003510BDE8F08140F60000C4F2020000F1C3
:1023E000FC0E00F5A072E2E730B110B590F8344071
:1023F000012C03D1022010BD01207047012480F878
:10240000344090F83540012C2BD1022480F835401F
:1024100000244465D0F800C0DCF8004024F001043A
:10242000CCF800400446FEF797F940F20F4C2068C4
:10243000C4F2020C40F26F416045C4F2020118DCA4
:102440006F23C4F20203984224DC3F23C4F2020348
:1024500098423ADC1023C4F20203984259D0282350
:1024600052E0002180F834104FF4006141650120F2
:1024700010BD88421ADC40F23F43C4F20203984286
:102480002ADC40F21043C4F20203984241D040F2E9
:10249000284339E09F23C4F20203984225DC7023CD
:1024A000C4F20203984234D088232DE040F29F43C7
:1024B000C4F2020398421FDC40F27043C4F20203EC
:1024C000984226D040F288431EE04023C4F2020323
:1024D00098421ED0582317E040F24043C4F2020352
:1024E000984216D040F258430EE0A023C4F20203F3
:1024F00098420ED0B82307E040F2B843C4F202037A
:10250000984206D040F2A043C4F20203984240F041
:10251000238103680B2262F344030360226C1AB127
:10252000082302681A430260884219DC9F22C4F221
:102530000202904231DC5722C4F20202904256DC81
:102540001022C4F20202904200F091802822C4F2CC
:102550000202904200F08B804022C4F2020284E02A
:1025600045F22F42C5F6020290422BDC40F2B74200
:10257000C4F20202904248DC40F27042C4F202020D
:10258000904274D040F28842C4F2020290426ED06F
:1025900040F2A042C4F2020267E040F22742C4F2D5
:1025A0000202904240DCA022C4F2020290425ED0BD
:1025B000B822C4F20202904259D040F21042C4F252
:1025C000020252E045F26B42C5F6020290423CDC48
:1025D00045F23042C5F60202904248D045F24442EC
:1025E000C5F60202904242D045F258423BE05822E2
:1025F000C4F2020290423AD07022C4F20202904227
:1026000035D08822C4F202022FE040F2B842C4F270
:10261000020290422BD045F20842C5F602029042D7
:1026200025D045F21C421EE040F22842C4F20202CC
:1026300090421CD040F24042C4F20202904216D0B6
:1026400040F25842C4F202020FE045F26C42C5F675
:10265000020290420BD045F29442C5F6020290422B
:1026600005D045F28042C5F6020290426ED1236E3B
:102670001A68D20303D51A6842F480721A60E36EB6
:102680001BB11A6842F480721A60604510DC6F2139
:10269000C4F2020188421CDC3F21C4F202018842DC
:1026A00032DC1021C4F2020188424FD028214AE0D6
:1026B00088421ADC40F23F41C4F2020188422ADC1F
:1026C00040F21041C4F2020188423FD040F228415A
:1026D00039E09F21C4F20201884225DC7021C4F256
:1026E0000201884232D088212DE040F29F41C4F29D
:1026F000020188421FDC40F27041C4F202018842AC
:1027000024D040F288411EE04021C4F202018842F8
:102710001CD0582117E040F24041C4F20201884227
:1027200014D040F258410EE0A021C4F202018842C8
:102730000CD0B82107E040F2B841C4F2020188424F
:1027400004D040F2A041C4F202018842016841F085
:1027500001010160002010BD0268052363F34302FC
:102760000260226C002A3FF4DFAE0423D9E60000A9
:10277000B0B5044600F088FF41F234210546C2F2AC
:102780000041621C097818BF0C4400BF00F07CFFB8
:10279000401BA042FAD3B0BD90F89830013B012B0A
:1027A0000BD80068836D0B420CD0836D0B408B42BD
:1027B0000CD1C36D43F0020309E000F19C0101203C
:1027C000022221E0C36D43F0010300E00323C3654F
:1027D0008B0504D5D0F8E0301343C0F8E0304B054A
:1027E00004D5D0F8E4301A43C0F8E4204FF6FF7265
:1027F000436DC3F6CF720A401A4342658A0F4AF608
:1028000014010020C4F200010B681A430A607047EB
:1028100090F89830022B1BD1B0B50368D3F8C050A4
:1028200015F07C5F1CD0D3F8C450AD021DD4D3F892
:10283000C4300546C3F304442346FEF72DF9286847
:102840000121A140C0F8D0100020C5F89410B0BDFF
:10285000D0F89C1041F00801C0F89C10012070478E
:10286000D0F89C1041F0200103E0D0F89C1041F416
:102870000071C0F89C100120B0BD000000000000F5
:10288000704700000000000090F89820013A012AEB
:102890000BD880B50A68002ACA680ED00B69072ACF
:1028A00043EA427E16D18B6919E0D0F89C1041F0C2
:1028B0000201C0F89C1001207047072A18D10A694C
:1028C000D1E906C3120442EA032242EA0C0242F0B2
:1028D000605217E0D1F808C04B6943EA8C73006F6F
:1028E000496800EBC10240F831E05360002080BD30
:1028F0008B68D1E904CE9B0743EAC26242EA0C42EC
:1029000042EA0E024968C06E40F82120002080BDD6
:1029100090F898C0BCF1010F0DD19200006842EA16
:102920000111DDF800C041EA430141EA0C01C0F8A1
:10293000801000207047D0F89C1041F00401C0F8CE
:102940009C1001207047000070470000000000004C
:10295000704700000000000070B590F89850022DFC
:102960001CD140291FD10568D5F8A04014F4FE0FF2
:1029700000F08F80D5F8A440640600F09680D5F86A
:10298000A440E40148BFD5F8A040D5F8A45000F118
:102990007404C5F3052E456CF44629E0D0F89C106C
:1029A00041F0080185E0412918D10568D5F8B0400B
:1029B00014F4FE0F6DD0D5F8B440640675D0D5F888
:1029C000B440E40148BFD5F8B040D5F8B45000F1A8
:1029D0007804C5F3052EC56CF44609E0056D8D42FB
:1029E00057D900F17C04D0F854E04FF0000C0D46AC
:1029F00005FB0EF6246854F8265015F08045556006
:102A000054F826E02EF0604508BFCEF38A4504EB6B
:102A1000860E156054F8265005F00055956054F860
:102A2000264004F000441461BEF80440D461DEF88E
:102A3000044004F47024D460DEF80450B4F5803F00
:102A400005F480155561DEF8045005F40015956114
:102A50009EF8075005F07F051562DEF804504FEA36
:102A6000D57454620ED30EF1080545F6EA2E002403
:102A7000C0F6010E2E5D1E550134D6891EF8066083
:102A8000B442F7D3402909D10068C0F8A8C000209B
:102A900070BDD0F89C1041F020010AE041290CD112
:102AA0000068C0F8B8C0002070BDD0F89C1041F498
:102AB0008071C0F89C10012070BD1F2907D80068E4
:102AC000012202FA01F1C0F89810002070BD0068E0
:102AD00001F01F01012202FA01F1C0F89C10002050
:102AE00070BD000000000000704700000000000002
:102AF0002DE9F04F87B004464AF610064AF6140056
:102B0000C4F20006C4F2000031680268206802EADC
:102B1000010A056D476DD0F85090D0F854B0036DA0
:102B20000293436D0193036D0693436D0593036D0B
:102B30000493436D0393436DDB0544BF016D5FEA6E
:102B4000C15100F10181206805EA07084FEA8A7740
:102B5000416D490544BF016D5FEA415100F1FD80BF
:102B600008F470464AF6100809EA0B05C4F200089A
:102B700057B12068002101650AF00300C8F8000081
:102B800020463946FFF77CFEDDE9011000EA010727
:102B900005F00F0546B12068314606650020C8F8EB
:102BA0000000204600F08CFC07F0F00645B12068DC
:102BB000294605650020C8F80000204600F0C0FB4B
:102BC00046B12068314606650020C8F8000020465E
:102BD00000F0FAFB2068416D090544BF016D5FEA12
:102BE000015100F1CC802068416D890544BF016D21
:102BF0005FEA815100F1CD802068416D090344BF37
:102C0000016D5FEA013100F1D3802068416DC90395
:102C100044BF016D5FEAC13100F1D4802068416D8D
:102C20004903DDE9032101EA020544BF016D5FEAC2
:102C3000413100F1D1802068416D8903DDE9052132
:102C400002EA010205F0607144BF036D5FEA83335D
:102C500000F1CC8002F0715531B101650020C8F857
:102C600000002046FFF774FE4DB120680565002086
:102C7000C8F80000D4F89C002843C4F89C002068E1
:102C8000A8F50161884209D0D4F89C00002858D0EA
:102C9000204607B0BDE8F04FFFF756BE6068816878
:102CA0008907F1D0016A426A036A476A114003EA60
:102CB000070211F00F0102F03005066A476AD0F8EA
:102CC00020A0D0F824B0D0F82080D0F8249003D0F1
:102CD0000162204600F0D8FB07EA06072DB16068C4
:102CE00029460562204600F0D7FB60680AEA0B0619
:102CF00007F4C075416A490644BF016A5FEA416151
:102D000000F1818008EA090706F4FC462DB16068ED
:102D100029460562204600F0B3FB07F4F02036B1E7
:102D200061680E62D4F89C103143C4F89C100028EE
:102D3000AAD061680862D4F89C100843C4F89C00CB
:102D4000A2E707B0BDE8F08F4FF480710165002065
:102D500030602046FFF7C8FEF5E6D0F8DC10D0F86A
:102D6000E42011404FF4806202654AF61002C4F27A
:102D7000000200201060204600F09AFBF0E64FF4BD
:102D8000006101650020C8F80000204600F09CFBAF
:102D900029E7D0F8D810D0F8E02011404FF40072A5
:102DA00002650020C8F80000204600F085FB23E7FC
:102DB0004FF4002101650020C8F80000204600F013
:102DC000BBFA22E74FF4803101650020C8F800000B
:102DD000204600F069FB21E74FF4802101650020C7
:102DE000C8F80000204600F05BFB24E74FF40033F6
:102DF00003650023C8F80030D4F89C3043F080030A
:102E0000C4F89C3026E7C16B4023C26B090C02F06A
:102E10003F020362204600F03BFB73E70000000026
:102E200040B32DE9F04F83B04AF200080446C4F2E3
:102E300000080068404502D108F58070606094F891
:102E4000980028B9002084F89900204600F0CCF9B9
:102E50002068816921F01001816100F015FC0546B0
:102E600020688169090707D500F00EFC401B0B287C
:102E7000F6D312E001207047816941F001018161C0
:102E800000F002FC054600BF20688169C90711D126
:102E900000F0FAFB401B0B28F6D30120D4F89C105D
:102EA0000843C4F89C00032084F89800012003B074
:102EB000BDE8F08F816941F002018161217C826966
:102EC00022F04002012918BF40328261617C826990
:102ED00022F48042012908BF02F580428261A17C70
:102EE000826922F48052012918BF02F58052826162
:102EF000816921F44073D4E902120B438361836931
:102F000023F0A4038361036923F0100303619AB1E2
:102F1000012A0DD0022A09D08369032A43F08003D5
:102F20008361036943F01002026105D1202200E0B1
:102F3000042283691A438261D4E90572E369561E4B
:102F40006FF0FF02256A02EB0323B1F5407F43EAED
:102F50004663A5F1010646EA030640F20003CFF6F8
:102F6000FF7303EB074746EA0701C16110D1D4E9BB
:102F70000B65D4E90917013F02EB06226FF00F063B
:102F80003A4306EB05173A4303EB01411143C16095
:102F9000236E2BB1616ED0F8C0201143C0F8C01071
:102FA000E16DCDE90113D94244F64061C0F601015B
:102FB00009D0D0F8C820A36E22F0070251F82330C0
:102FC0001A43C0F8C820D4F840C0BCF1000F09D0A3
:102FD000D0F8BC20636C22F0070251F823301A436A
:102FE000C0F8BC20D4F848B0BBF1000F0AD0D0F82C
:102FF000BC20E36C22F0700251F8233042EA031245
:10300000C0F8BC20D4F850A0BAF1000F0AD0D0F814
:10301000BC20636D22F4E06251F8231042EA0121E2
:10302000C0F8BC10404504D161688A6822F00302F0
:103030008A600021C4F89410C4F89C10012184F81F
:10304000981004F13409D0F884104FF6FC729143C3
:10305000656C99E80C02009541EA8201C0F8841081
:10306000D0F8841021F47F0141EA0341C0F88410B4
:103070009918D0F888306FF38F0343EA8103C0F8C2
:103080008830D0F8883023F4FE0343EA0943C0F8BF
:10309000883001EB4903D0F8A0606FF38F0646EA51
:1030A0008306C0F8A060D0F8A06026F4FE0646EAC9
:1030B0000C46C0F8A06005FB0C36D0F8B0306FF3BA
:1030C0008F0343EA8603C0F8B030D0F8B03023F461
:1030D000FE0343EA0B43C0F8B030E36CD0F8AC50C9
:1030E0006FF38F0503FB0B6645EA8605C0F8AC500D
:1030F000D4F8548008FB0A65D0F8F0606FF38F06AF
:1031000046EA8506C0F8F060D0F8F0E0A66D2EF42F
:103110007C1747EA0647C0F8F070F70007EB850711
:10312000D0F8C0506FF38F052F43C0F8C070D0F8AF
:10313000C070009DDDF804E027F47C1705FB0CFC53
:103140004AF2000547EA0E47C0F8C070C4F2000515
:1031500003FB0BC305F54067D0F8C05007EB8202B4
:1031600007EB810125F07C57029D47EA0567C0F80F
:10317000C07001EBC90008FB0A372167A16E00EBA4
:103180008C0C606700EB8303E266C4E91EC30EFB90
:1031900001F300EB87006943C4F8800000EBC60030
:1031A000C4F8840000EB8300C4F8880000EB8100C1
:1031B0004DF2FC31C4F20001C4F89000884201D9FC
:1031C00020206BE6824208D2002000BF42F8040BA8
:1031D000D4F890108A42F9D369E6002003B0BDE824
:1031E000F08F00000000000010B586B04DF20042E4
:1031F0000068C4F20002002190420591CDE903115C
:10320000CDE901115CD04AF20041C4F200018842CC
:103210002AD04AF20001C4F20001884240F08A80BC
:1032200041F2702144F2E040C2F20041C5F60200D2
:103230000A68002A02F101020A6008D1C16841F45B
:103240008071C160C16801F48071009100990168CA
:10325000132441F0080101600068092100F0080012
:103260000090009803204FE041F2702144F2E040CA
:10327000C2F20041C5F602000A68002A02F101020A
:103280000A6008D1C16841F48071C160C16801F46D
:103290008071009100990168142441F002010160DD
:1032A000006840F6004100F002000090C5F60201FF
:1032B00000984FF440500190A1F50060092128E0EA
:1032C00041F2702144F2E040C2F20041C5F6020032
:1032D0000A68002A02F101020A6008D1C16841F4BB
:1032E0008071C160C16801F480710091009901682A
:1032F0009F2441F0080101600068052100F00800EA
:10330000009000984FF44050019040F60040C5F600
:103310000200059101A9022202920022CDE90322B6
:1033200000F0D6F805210022204600F07DFA204664
:1033300000F066FA06B010BD704700000000000003
:10334000C90708BF7047B0B543F6E03543F69D3373
:10335000C2F20045C2F2004340212A460446FFF76C
:10336000FBFA4DF200412068C4F20001884212D0FD
:103370004AF20041C4F2000188421CD12968B1F52B
:10338000807F18BF20290CD143F69D30C2F2004047
:103390000CF05EF80FE041F2FC502968C2F20040E8
:1033A00003E041F2A820C2F2004043F69D32C2F28F
:1033B00000420AF095FF012100222046BDE8B040FE
:1033C000FFF7EAB900000000C90658BF704770B5A2
:1033D00043F6484643F60845C2F20046C2F20045AD
:1033E000412132462B460446FFF7B6FA4DF2004122
:1033F0002068C4F20001884217D04AF20041C4F2AA
:10340000000188420AD04AF20001C4F20001884259
:1034100013D1287829460AF033FD0EE043F608421E
:103420003168C2F20042012005E043F608423168EB
:10343000C2F2004202200AF02BF81021002220469E
:10344000BDE87040FFF7A8B990F8981001290CD199
:10345000022180F8981001688A6922F001028A61CD
:103460000021C0F89C1000207047D0F89C1041F05B
:103470000401C0F89C10012070470000000000000B
:1034800070470000000000007047000000000000CE
:1034900070470000000000007047000000000000BE
:1034A00070470000000000007047000000000000AE
:1034B000704700000000000070470000000000009E
:1034C000704700000000000070470000000000008E
:1034D0002DE9F04F82B00E68002E00F0C88000F198
:1034E00026420A2302F1FF7742F20042C5F60202A9
:1034F0004FEAB725904240F2040A08BF0923082D7D
:10350000C5F6000A38BF4FEAB72300F1200E0024A9
:103510004FF0010C00274FF0000800930BE000BFB4
:1035200008F101080E6836FA08F207F1020704F103
:10353000040400F09C800CFA08F516EA0509EFD0A7
:103540004E68122E17D80CFA06F212F0061F12D08F
:103550000322D0F808B002FA07F3CA682BEA030383
:10356000BA401A438260C6F300134268AA4303FAC2
:1035700008F31A4342600323C26803FA07FB8B680F
:1035800046F0100522EA0B02BB40122D42EA03026C
:10359000C26013D16FF0030204F01C0502EA580266
:1035A0000F26AE405EF80230D1F810C0B3430CFADB
:1035B00005F64FF0010C33434EF8023002684B68B9
:1035C00003F003066FEA0B05BE402A40DB0042EA27
:1035D00006020260A4D544F2F44340F2084BC5F65B
:1035E0000203C5F6000B0F251A6842F002021A60AA
:1035F0001A6802F00202019228F00302019B04F013
:103600000C0352F80B609D40AE43009D05FA03F396
:10361000334342F80B30DAF87C204B6842EA090663
:10362000DD0358BF22EA09069D034FF0B04BCAF8EC
:103630007C60DAF8802042EA090658BF22EA0906CF
:10364000DD02CAF88060DBF8002042EA090658BFB4
:1036500022EA09069B02CBF80060DAF8002042EA71
:10366000090658BF22EA0906CAF8006058E702B006
:10367000BDE8F08F00000000002A08BF0904816146
:10368000704700000000000047F62460C2F20040CE
:103690000068704700000000016800204AF6AA2276
:1036A0000A6070470000000041F2342047F62461B0
:1036B000C2F20040C2F2004100780A68104408607B
:1036C000704700000000000080B5032000F0DCF827
:1036D00001F03AFD44F2184144F6EC73C5F60201DC
:1036E000C0F601030A68C2F303229A5C096801F07C
:1036F0000F0102F01F02595CD04040F23422C2F2A6
:10370000004201F01F0120FA01F1116040F2302166
:10371000C2F200410860002000F00AF800281CBF37
:10372000012080BD00F054F8002080BD00000000A2
:103730000F2842D8B0B58AB004461920002221468D
:10374000002500F071F8192000F05AF841F23820F5
:10375000C2F20040046044F2F040C5F60200016885
:1037600041F001010160006801A900F00100029030
:10377000029802A801F034FC01F0B6FC4DF683611A
:103780004000C4F21B310022A0FB010142F2CC40F8
:10379000C2F200404FF0FF33C4F20102026003EBBB
:1037A0009141C0E9011540F2E731C0E9031502F08B
:1037B000FFFB20B101200AB0B0BD0120704742F2EA
:1037C000CC40C2F2004002F043FC0AB0B0BD0000A1
:1037D00081B044F2F4400022C5F60200016841F0D5
:1037E0000201016000680F2100F0020000906FF0FC
:1037F0000100009B01B000F017B8000000000000BD
:10380000002848BF704700F01F01012202FA01F1B1
:103810004EF20012C0F34A10CEF2000242F820101D
:10382000704700000000000070B54EF60C5C4FF0D1
:10383000FF36CEF2000C00F1604505F56445DCF87A
:103840000030C3F3022E8EF00703042B28BF04239D
:10385000BEF1030406FA03F321EA030100F00F03AB
:1038600038BF0024043B0028634406FA04F048BF34
:1038700003F10C05A14022EA000008430001287072
:1038800070BD0000000000004EF60C514FF6FF0323
:10389000CEF200010A681A4060F30A2242F080600A
:1038A00040F0FD70086070477047000000000000A5
:1038B000D0F8040405F0ECBCC1EBC10200EB8202BD
:1038C000D0F80404926C05F05BBC0000000000001E
:1038D000C1EBC10200EB8202D0F80404D2F8082246
:1038E00005F0A2BC00000000D0F8040405F0D4BC30
:1038F000B0B501F00F024368934201D20120B0BD80
:103900004CB2C2EBC2038C46002C00EB830303F5E0
:10391000FE714FEADC1448BF03F13C0190F8BC3360
:103920004C700024012B8C700A7001D10220B0BDB4
:10393000012280F8BC2302680546104606F07CF997
:10394000204685F8BC43B0BDB0B501F00F0E8C46E3
:103950004FFA8CF4CEEBCE01002C00EB810505F57F
:10396000FE7148BF05F13C015FEADC154D7081F83E
:1039700000E08A60CB7018BFA1F806E0022B01D1ED
:1039800000220A7190F8BC23012A01D10220B0BDA7
:10399000012280F8BC2302680446104606F050F865
:1039A000002084F8BC03B0BD80B501F00F0CCCEB57
:1039B000CC0100EB810E0021CEE9843103698EF841
:1039C000FD110EF5FE71CEF80822012B8EF8FCC118
:1039D00008BF0A61BCF1000F0068DAB203D006F03C
:1039E00073F9002080BD06F07FF8002080BD000044
:1039F000B0B501F00F04426894424FF001022CD898
:103A00004FFA81FCC1EBC103C4EBC405BCF1000F4C
:103A100000EB830303F5FE7300EB850548BF05F15A
:103A20003C0390F8BC53C9095970012D9A701C7061
:103A300001D10220B0BD012180F8BC130546006809
:103A4000194606F021F92CB9297C05F57172286810
:103A500006F0C2F8002285F8BC231046B0BD000075
:103A600080B501F00F0C4FF0000ECCEBCC0100EB59
:103A7000810101F83CCFC1E9053ED0F810E0CA60F1
:103A8000BEF1010F4FF001034B7008BF0A61BCF19A
:103A9000000F00685FFA8EF203D006F015F90020DF
:103AA00080BD06F021F8002080BD0000000000006D
:103AB0002DE9F04F85B004688146204606F010FAE3
:103AC00010B105B0BDE8F08FD9F8000006F038FA63
:103AD0000028F6D0D9F8000006F032FA800705D5A4
:103AE000D9F80000416901F002014161D9F80000F4
:103AF00006F026FAC006049436D5D9F8000081698C
:103B000021F010018161256A05F00F00C0EBC001B2
:103B1000C5F3434009EB8101062801F5FE7611D07B
:103B200002281AD147F6F07015EA000415D02509CD
:103B3000F16804982A4606F007FAF06800EB1410C2
:103B4000F06007E009F571710822204606F0FCF9E3
:103B5000C5F30A15B0692844B061D9F8000081693D
:103B600041F010018161049CD9F8000006F0E8F9E9
:103B7000000340F1DC80D9F8000006F0BDF9002810
:103B800000F0D58006464FF430654FF000084FF046
:103B9000000A09F57170039009E000BF0AF1010AFB
:103BA000760805F1200508F11C0800F0C080F00738
:103BB000F4D05FFA8AFBD9F80000594606F0B8F94C
:103BC0000746C00750D0601901218160D9F8000074
:103BD0002918036C8A68D9F81040012C0FD11407FA
:103BE0001CD494063CD443F20B04C4F65474A34290
:103BF0007CD312F4004279D04FF4004031E043F21C
:103C00000B04C4F65474FF34A34217D11004049C6F
:103C10000ED490061DD5202088601AE043F20B00D8
:103C2000049CC4F6547083421ED312F400401BD08F
:103C30004FF400408860380718D43FE0BAF1000F15
:103C4000049C06D1D9F8101219B90021039A05F085
:103C5000C3FF48465946FFF73BFE380706D42DE020
:103C600020208860049C00BF380727D560190821F0
:103C7000816043F20B01D9F80000C4F65471046C62
:103C800028448C42816805D311F400411CBF4FF4D5
:103C900000418160484600F08BFA43F20B00C4F605
:103CA00054708442049C09D3D9F81000012805D12E
:103CB000D9F800000121039A05F08EFFF80605D41B
:103CC000B80608D4B8047FF569AF0AE0601910217E
:103CD0008160B806F6D5601920218160B8047FF5AF
:103CE0005DAF60194FF40051816057E709EB08029E
:103CF00009696FF3DF41BAF1000FD2E98134A3EB18
:103D00000101C2F8141204EB0301C2F8081206D133
:103D1000D2F8101219B90121039A05F05DFF484647
:103D20005946FFF7D5FD049C38079FD4C6E7D9F85C
:103D3000000006F005F9400340F1CD80D9F80000FD
:103D400006F0D2F8002800F0C6800646049800F578
:103D5000106A4FF0000809F13C00039009F57170FA
:103D60000190CDF808A004E0760808F1010800F001
:103D7000B280F007F8D05FFA88F7D9F8000039462A
:103D800006F0C2F80546C0070AD1280736D4E8066F
:103D90003AD468063ED4A80742D42806E4D545E0C4
:103DA000049B08F00F0001240AEB481204FA00F00B
:103DB000D3F8341821EA0000C3F834089460D9F825
:103DC0001000012814D1C8EBC8000399B8F1000F06
:103DD00001EB8000D0E902121144C16008D14069B2
:103DE00030B9D9F800000121019A05F0F5FE00BFB5
:103DF00048463946FFF760FD2807C8D50AEB48104A
:103E000008218160E806C4D50AEB481010218160C2
:103E10006806C0D50AEB481040218160A807BCD5D0
:103E20000AEB48100221816028069DD5C8EBC80026
:103E3000039901EB800BDBE90510814294D3D9F89B
:103E40000050081ADBF80810CA46884238BF0146FD
:103E500005EB48100331D0F8182992B2B2EB910F5C
:103E600025D300F5106900BFDBE9051081421ED99A
:103E7000081A9AF81020DBE90241A04238BF044634
:103E800000922846A3B23A4606F01EF9DBF80C0071
:103E9000DBF818102044CBF80C000819CBF81800F8
:103EA000E01CD9F8181089B2B1EB900FDCD2DBE935
:103EB00005018842D146DDF808A03FF655AF08F06D
:103EC0000F00012101FA00F0D5F8341821EA0000B2
:103ED000C5F8340848E7D9F8000006F031F8B0F129
:103EE000FF3FDDF810A01ADCDAF8040820F001002A
:103EF000CAF8040899F8F403012807D1002089F8CA
:103F0000F40300214846FFF7CFFC02E0484600F0EA
:103F10002FF9D9F80000416901F000414161D9F859
:103F2000000006F00DF800050CD5DAF80808C00707
:103F300002D0484600F044F9D9F80000416901F484
:103F400000614161D9F8000005F0FAFF000117D5C2
:103F5000D9F80000416901F00061416199F8F4135A
:103F600019B1484600F02CF90AE0012189F8F41350
:103F7000406DC0F38300C9F8F8034846FFF794FC8E
:103F8000D9F8000005F0DCFFC00458D5DAF80408C1
:103F9000102120F00100CAF80408D9F800000AF541
:103FA000006505F079FFD9F80400F0B10AF5106159
:103FB0004FF67F328A6001380B6823F400130B60E0
:103FC0000B6843F000630B60C1F80822D1F800329F
:103FD00023F40013C1F80032D1F8003243F000633B
:103FE000C1F8003201F12001E4D1E869842140F0F8
:103FF0000110E861D9F830000B2200284FF044038B
:1040000008BF142104BF42F22B021023D9F800008C
:104010006F583A436A50E95809F5717241F00B0143
:10402000E950296821F4FE61296099F8101005F023
:10403000D3FDD9F80000416901F480514161D9F8FC
:10404000000005F07DFF80041CD5D9F8000005F0C4
:104050003BFDD9F8000005F033FFC9F80C00D9F892
:10406000005000F0E9FF99F80C200146284605F0C1
:10407000A3FF484600F064F8D9F80000416901F454
:1040800000514161D9F8000005F05AFF000708D53A
:10409000484600F071F8D9F80000416901F00801C4
:1040A0004161D9F8000005F04BFFC00209D500219D
:1040B000484600F03DF8D9F80000416901F480114C
:1040C0004161D9F8000005F03BFF800209D50021CD
:1040D000484600F031F8D9F80000416901F40011B8
:1040E0004161D9F8000005F02BFF400008D5484693
:1040F000FFF7DEFBD9F80000416901F08041416122
:10410000D9F8000005F01CFF40077FF5DAACD9F8BC
:1041100000004468600702D54846FFF7E5FBD9F880
:10412000000041682143416005B0BDE8F08F000008
:10413000D0F8040405F0D8B8D0F8040405F0E8B8C5
:1041400010B50446C06828B1022801D0FCF784FCF1
:10415000012100E00021D4F8040405F069F9D4F845
:104160000404BDE8104005F00FB900000000000095
:10417000D0F8040405F03CB9D0F8040405F044B9C3
:1041800090F8BC23012A01D10220704710B501220A
:1041900080F8BC2380F8381004460268104605F009
:1041A000F7FE002084F8BC0310BD000000000000F2
:1041B000D0F8042400F57171104605F051B90000E3
:1041C00010B50446D0F8040405F08EF92068D0F844
:1041D000001E41F00101C0F8001E206A002808BF3F
:1041E00010BD4EF61050CEF20000016841F00601FD
:1041F000016010BD00000000B0B544F60C05C5F626
:10420000020529684907296805D401F00701081A41
:1042100018BF0120B0BD21F0070108432860FFF757
:1042200033FA044655F8080C800407D4FFF72CFA3B
:10423000001BB0F57A7FF5D90120B0BD0020B0BDDC
:1042400080B500F0F9FE44F2204144F6EC72C5F668
:104250000201C0F601020968C1F30211515C01F0CC
:104260001F01C84080BD000080B544F2384EC5F63D
:10427000020E5EF8103C5EF8101C5EF80C2CC1F3C8
:10428000053CDEF80410BCF1000F15D0C908D206B9
:1042900001EAE2716FF35F3100EE101A03F00301DF
:1042A0000229B8EE400A0CD071B95EF8381C8906B4
:1042B0000DD49FED351A18E000218160C0E900118E
:1042C00080BD9FED301A10E09FED2D1A0DE05EF8D5
:1042D000381C49F20002C0F2D032C1F3C10122FA07
:1042E00001F101EE101AB8EE411ADEF800109FED50
:1042F000273A6FF35F2102EE101ADEF80010C1F3C7
:104300004621B8EE422A00EE032A00EE10CAB7EEAC
:10431000003AB8EE400A81EE000A32EE031A02EECD
:10432000101AB8EE422A20EE010A32EE031A80EE8D
:10433000011ABCEEC11A80ED001ADEF80010C1F3BC
:10434000064101EE101AB8EE411A31EE031A80EE62
:10435000011ABCEEC11A80ED011ADEF80010C1F39B
:10436000066101EE101AB8EE411A31EE031A80EE22
:10437000010ABCEEC00A10EE101A816080BD00BFB9
:104380000024744A0024744B0024744C000000394B
:1043900080B544F2404EC5F6020E5EF8183C5EF859
:1043A000181C5EF8142CC1F3055CDEF80410BCF197
:1043B000000F15D0C908D20501EAE2716FF35F3131
:1043C00000EE101A03F003010229B8EE400A0CD0E7
:1043D00071B95EF8401C89060DD49FED351A18E0BE
:1043E00000218160C0E9001180BD9FED301A10E00E
:1043F0009FED2D1A0DE05EF8401C49F20002C0F25C
:10440000D032C1F3C10122FA01F101EE101AB8EE67
:10441000411ADEF800109FED273A6FF35F2102EE9C
:10442000101ADEF80010C1F34621B8EE422A00EE61
:10443000032A00EE10CAB7EE003AB8EE400A81EE49
:10444000000A32EE031A02EE101AB8EE422A20EEEB
:10445000010A32EE031A80EE011ABCEEC11A80ED99
:10446000001ADEF80010C1F3064101EE101AB8EE92
:10447000411A31EE031A80EE011ABCEEC11A80ED2A
:10448000011ADEF80010C1F3066101EE101AB8EE51
:10449000411A31EE031A80EE010ABCEEC00A10EE9A
:1044A000101A816080BD00BF0024744A0024744B40
:1044B0000024744C000000392DE9F04381B004461B
:1044C000C07844F22C490007C5F6020901D4002641
:1044D0001FE0206E4FEA3050032834D80026DFE872
:1044E00000F0020A1B21D9F8000040F40030C9F89E
:1044F0000000CEB905E0201D022103F05DFE064656
:1045000096B9D9F82400216E20F440100843C9F868
:1045100024004FF0000808E004F12400022103F019
:10452000DBFE0646002EECD0B0466078C0071ED0F9
:10453000606D04283DD8DFE800F02B340A03030047
:104540006EB1B04613E00126002EEDD1D9E704F19B
:104550002400002103F0C0FE0646002EF1D1D9F858
:104560002400616D20F007000843C9F8240060783A
:10457000400745D5D4F8A0004FEA705005282BD845
:10458000DFE800F01B2E2403030386B3B04637E0B8
:10459000D9F8000040F40030C9F80000002ED0D156
:1045A000DDE7201D002103F007FE0646002EC8D1DE
:1045B000D5E70126002EC4D1D1E7D9F8000040F498
:1045C0000030C9F80000002EE0D110E004F1240012
:1045D000002103F081FE07E00126002ED6D106E07F
:1045E000201D002103F0E8FD0646002ECED1D9F8AB
:1045F0002C00D4F8A01020F460000843C9F82C0067
:104600006078000730D5D4F8A4004FEA3060052860
:1046100016D8DFE800F006190F030303DEB1B04639
:1046200022E0D9F8000040F40030C9F80000002E64
:10463000F5D110E004F12400002103F04DFE07E065
:104640000126002EEBD106E0201D002103F0B4FD71
:104650000646002EE3D1D9F82C00D4F8A41020F09F
:10466000E0600843C9F82C00E07880071BD5A06CF7
:104670004FEA301003282ED8DFE800F002052502AB
:104680004EB1B0460FE0D9F8000040F40030C9F850
:104690000000002EF5D1D9F82000A16C20F03000E8
:1046A0000843C9F820006078C00628D5A06D4FEAFD
:1046B0003030042846D8DFE800F0343D1203030010
:1046C000AEB1B0461BE0201D022103F075FD064689
:1046D000002ED6D1DFE70126002ED2D1DBE704F190
:1046E0002400002103F0F8FD0646002EE9D1D9F898
:1046F0002400A16D20F4E0400843C9F8240060784C
:10470000800637D5E06D4FEA3040052827D8DFE82E
:1047100000F023031D232323201D012103F04CFD62
:1047200019E0D9F8000040F40030C9F80000002E6C
:10473000C7D1DCE7201D002103F03EFD0646002E18
:10474000BFD1D4E70126002EBBD1D0E704F124006D
:10475000012103F0C1FD064626B1B0460AE001265C
:10476000002EFAD1D9F82400E16D20F4E0200843AE
:10477000C9F824006078400624D5D4F8A8004FEA90
:104780003070052812D8DFE800F00E03080E0E0E78
:10479000201D012103F010FD04E004F1240001219B
:1047A00003F09AFD064626B1B0460BE00126002E26
:1047B000FAD1D9F82C00D4F8A81020F0E040084332
:1047C000C9F82C00607800061FD5A06ED0B1B0F1FA
:1047D000005F12D0B0F1805F25D1D9F8000040F41D
:1047E0000030C9F800007EB9D9F82400A16E20F08D
:1047F00040500843C9F8240007E0201D012103F0C0
:10480000DBFC0646002EEFD0B046E078C0071ED095
:10481000606C032800F27F80DFE800F00209740278
:104820006EB1B04613E00126002EEDD1DCE7D9F8D9
:10483000000040F40030C9F80000002EF1D1D9F892
:104840002000616C20F003000843C9F82000A07824
:10485000400645D5D9F8D40340F48070C9F8D40394
:10486000FEF712FF074600BFD9F8D403C00505D4F0
:10487000FEF70AFFC01B6528F6D303267EBBD9F8D6
:104880004410D4F8AC00414011F4407F11D0D9F865
:104890004410D9F8442042F48032C9F84420D9F8B1
:1048A000442021F4407122F48032C9F84420C9F830
:1048B0004410B0F5807F0FD1FEF7E6FE074641F2C7
:1048C000893500BFD9F84400800705D4FEF7DCFE27
:1048D000C01BA842F6D30326002E00F02B82B04660
:1048E0002078C00730D0606F4FEAF000052820D84C
:1048F000DFE800F01C03161C1C1C201D012103F026
:104900005BFC12E0201D022103F056FC0646002E3F
:104910007FF487AF93E70126002E7FF482AF8EE706
:1049200004F12400012103F0D7FC064626B1B0466D
:104930000AE00126002EFAD1D9F82800616F20F094
:1049400038000843C9F828002078800720D5206F58
:10495000052812D8DFE800F00E03080E0E0E201D09
:10496000012103F029FC04E004F12400012103F0FB
:10497000B3FC064626B1B0460AE00126002EFAD165
:10498000D9F82800216F20F007000843C9F8280053
:104990002078400722D5D4F88C00052812D8DFE80B
:1049A00000F00E03080E0E0E201D012103F004FC82
:1049B00004E004F12400012103F08EFC064626B138
:1049C000B0460BE00126002EFAD1D9F82C00D4F81D
:1049D0008C1020F007000843C9F82C0020788006CE
:1049E00024D5D4F888004FEA3070052812D8DFE8C3
:1049F00000F00E03080E0E0E201D002103F0DCFB5C
:104A000004E004F12400022103F066FC064626B10E
:104A1000B0460BE00126002EFAD1D9F82800D4F8D0
:104A2000881020F0E0400843C9F8280020784006AC
:104A300024D5D4F894004FEAB020052812D8DFE836
:104A400000F00E03080E0E0E201D002103F0B4FB33
:104A500004E004F12400022103F03EFC064626B1E6
:104A6000B0460BE00126002EFAD1D9F82C00D4F87C
:104A7000941020F4E0500843C9F82C002078000678
:104A800024D5D4F898004FEA7030052812D8DFE812
:104A900000F00E03080E0E0E201D002103F08CFB0B
:104AA00004E004F12400022103F016FC064626B1BE
:104AB000B0460BE00126002EFAD1D9F82C00D4F82C
:104AC000981020F460400843C9F82C0020780007B3
:104AD00014D5E06FB0F5805F08D104F12400022105
:104AE00003F0FAFB002818BF4FF00108D9F828009E
:104AF000E16F20F440500843C9F828002078C00630
:104B000016D5D4F89000B0F5807F08D104F12400C8
:104B1000022103F0E1FB002818BF4FF00108D9F88B
:104B20002C00D4F8901020F440700843C9F82C00F1
:104B3000A078000723D5D4F89C00B0F5003F1BD027
:104B4000B0F5803F12D0002840F0DC80201D00210D
:104B500003F032FB06468EB9D9F82C00D4F89C102D
:104B600020F440300843C9F82C0008E004F1240088
:104B7000022103F0B1FB0646002EEDD0B046A0782E
:104B8000400725D5D4F88000B0F5401F1DD0B0F502
:104B9000001F14D0B0F5801F40F0B980D9F8000094
:104BA00040F40030C9F800008EB9D9F82800D4F8D4
:104BB000801020F440100843C9F8280008E004F1F0
:104BC0002400012103F088FB0646002EEDD0B046FC
:104BD000A078C0071ED0E06CB0F5803F0BD0002855
:104BE00040F08B80D9F8000040F40030C9F8000094
:104BF00046B1B0460EE0201D022103F0DDFA064664
:104C0000002EF6D1D9F82000E16C20F48030084362
:104C1000C9F82000E078800608D504F124000221BC
:104C200003F05AFB002818BF4FF0010820688103E9
:104C30001CD4C10232D481023AD4410042D4B0F132
:104C4000FF3F4FDD000208D5D9F82800D4F88410C2
:104C500020F440000843C9F82800B8F1000F18BF3D
:104C60004FF00108404601B0BDE8F083A16F6FF03E
:104C7000010202EB3122022A0AD34FEA31223AB171
:104C8000012A49D1D9F8002042F40032C9F80020A5
:104C9000002E44D04FF00108C102CCD5D9F8241021
:104CA000E26E21F000411143C9F824108102C4D5FD
:104CB000D9F82410626E21F080711143C9F82410D4
:104CC0004100BCD559F81C1C21F4004149F81C1CBA
:104CD000D4F8B01059F81C2C114349F81C1CB0F141
:104CE000FF3FAFDCD9F82010226D21F04051114375
:104CF000C9F820100002A7D4AFE70126002E7FF4E8
:104D000078AF7FE70126002E7FF438AF24E7012635
:104D1000002E7FF45CAF48E70126002EBAD1D9F807
:104D2000282022F440721143C9F82810C1027FF5EF
:104D300082AFB3E74FF6CF73D4F8AC0059F81C2C10
:104D4000C0F2FF0300F4407122F47C5203EA101316
:104D5000B1F5407F08BF1A436FF31F3049F81C2C90
:104D6000D9F844100843C9F84400B9E50000000030
:104D700070470000000000002DE9F04381B00028DA
:104D800000F0F88042F200080446C5F20028894687
:104D9000D8F8000000F00F0088420ED2D8F80000CA
:104DA00020F00F0040EA0900C8F80000D8F8000021
:104DB00000F00F00484540F0DD80206844F21847BD
:104DC0004107C5F602070AD521693A6802F0700268
:104DD000914204D93A6822F0700211433960010708
:104DE0000AD561697A6802F07002914204D97A6842
:104DF00022F0700211437960C1060AD5A1697A6870
:104E000002F4E062914204D97A6822F4E06211432C
:104E1000796081060AD5E169BA6802F070029142B0
:104E200004D9BA6822F070021143B96081070AD52B
:104E3000E1683A6802F00F02914204D93A6822F020
:104E40000F0211433960C00740F08080206881075D
:104E50000AD5E1683A6802F00F02914204D23A683A
:104E600022F00F0211433960D8F8001001F00F0151
:104E700049450DD9D8F8001021F00F0141EA090188
:104E8000C8F80010D8F8001001F00F01494571D1A1
:104E900041070AD521693A6802F07002914204D2B2
:104EA0003A6822F070021143396001070AD561693E
:104EB0007A6802F07002914204D27A6822F070029D
:104EC00011437960C1060AD5A1697A6802F4E062EB
:104ED000914204D27A6822F4E0621143796080063C
:104EE0000AD5E069B96801F07001884204D2B96856
:104EF00021F070010843B86000F026F9396844F6E3
:104F0000EC72C0F60102C1F30321515C3B6803F06F
:104F10000F0301F01F01D25C20FA01F102F01F0023
:104F200040F23422C2F2004221FA00F0106041F255
:104F3000382040F23022C2F20040C2F20042006843
:104F4000116001B0BDE8F043FEF7F2BB386820F411
:104F50007061D4E9010211433960012857F8181C27
:104F60000CD0032804D0022828D1890302D507E0F9
:104F7000890105D4012001B0BDE8F083C905F9D548
:104F800057F8081C21F00701084347F8080CFEF702
:104F90007BFB064641F2883557F8080C616800F043
:104FA0003800B0EBC10F3FF451AFFEF76DFB801B33
:104FB000A842F1D9032001B0BDE8F0834907D9D553
:104FC000DEE700000000000044F20040C5F60200E9
:104FD000016841F4002101607047000000000000FA
:104FE0003F22026044F21842C5F6020252F8083C21
:104FF00003F007034360136803F47063836013686E
:1050000003F00F03C360136803F070030361536878
:1050100003F070034361536803F4E06383619268B3
:1050200002F07002C26142F20000C5F20020006886
:1050300000F00F000860704780B500F085F844F27A
:10504000184144F6EC73C5F60201C0F601030A6884
:10505000C2F303229A5C096801F00F0102F01F02FB
:10506000595C20FA02F201F01F0040F23421C2F232
:10507000004122FA00F0086040F23021C2F2004103
:105080000A6080BD0000000080B500F05DF844F2C9
:10509000184C44F6EC73C5F6020CC0F60103DCF8BC
:1050A0000020C2F303229A5CDCF8001001F00F012B
:1050B00002F01F02595CD04040F23422C2F200429A
:1050C00001F01F0120FA01F1116040F23022C2F21A
:1050D00000421060DCF80400C0F30210185C00F01D
:1050E0001F0021FA00F080BD80B500F02DF844F2D9
:1050F000184C44F6EC73C5F6020CC0F60103DCF85C
:105100000020C2F303229A5CDCF8001001F00F01CA
:1051100002F01F02595CD04040F23422C2F2004239
:1051200001F01F0120FA01F1116040F23022C2F2B9
:1051300000421060DCF80400C0F30220185C00F0AC
:105140001F0021FA00F080BD44F20041C5F60201C3
:105150000869C0F3C200032814D002280DD080BB18
:105160000868800649F20000C0F2D03058BF70478E
:105170000968C1F3C101C840704742F20040C0F263
:10518000F40070478A6A886AC0F3051CC86ABCF1DB
:10519000000F4B6B1AD000F00100404200EAD30030
:1051A0006FF35F3000EE100A02F003000228B8EE41
:1051B000400A0DD078B9086880060FD49FED231AF5
:1051C00019E040F60010C0F23D0070470020704723
:1051D0009FED1D1A0FE09FED1B1A0CE0086849F2C5
:1051E0000002C0F2D032C0F3C10022FA00F001EE9A
:1051F000100AB8EE411A086B9FED153A6FF35F2065
:1052000002EE100A086BC0F34620B8EE422A0130C5
:1052100000EE032A00EE10CAB7EE003AB8EE400ADC
:1052200081EE000A32EE031A20EE010A01EE100AA6
:10523000B8EE411A80EE010ABCEEC00A10EE100A68
:10524000704700BF0024744A0024744B0024744C3F
:10525000000000390000000010B544F26444C5F6B7
:1052600002042068400558BF10BDFFF781FD4FF4D0
:105270008060606010BD00002DE9F04381B000281F
:1052800000F036818046007844F20046C007C5F63B
:10529000020649D0306900F03801B06A102905D003
:1052A00018290BD100F00300022807D130688003D1
:1052B00036D5D8F8040098BB012726E0D8F804506A
:1052C00030682DB1B5F5A02F09D0B5F5803F0AD0D3
:1052D00020F480303060306820F4802005E040F415
:1052E00080203060306840F480303060FEF7CCF9C8
:1052F000002D054611D000BF3068800310D4FEF7A2
:10530000C3F9401B6428F7D90327002060B92DE1B9
:10531000FEF7BAF9401B6428F6D830688003F7D44A
:105320000120002800F0228198F80000800734D581
:10533000306910F03801B06A1BD0182908BF5FEA45
:10534000807016D0D8F80C00316800285CD021F0AD
:10535000190108433060FEF797F9054630684007A9
:105360000FD4FEF791F9401B0228F7D90327002438
:1053700010E03068400704D5D8F80C00002800F091
:105380004B817068D8F8101020F0FE40012440EAEC
:1053900001607060002C00F0E98098F80000C00601
:1053A00062D5306900F03801B06A082905D01829A3
:1053B00014D100F00300012810D13068C00503D5D6
:1053C000D8F81C0080284AD1F068D8F8201020F0C6
:1053D0007C50012440EA0160F06042E0D8F81C00F3
:1053E0000028306825D040F080003060FEF74CF98E
:1053F000054600BF3068C005E6D4FEF745F9401BFE
:105400000228F7D903272BE021F001003060FEF7D6
:105410003BF905464FF00109306810F0040089EAB5
:105420009004B7D0FEF730F9401B0228F4D90327C7
:10543000B0E720F080003060FEF726F905464FF017
:10544000010900BF306810F4807089EA102408D088
:10545000FEF71AF9401B0228F4D9032701E00127BF
:105460000024002C00F0828098F80000000741D44E
:1054700098F80000800652D498F80000400762D4E3
:10548000D8F8244094B3306900F03800182840F070
:10549000A380012CB16A306B2AD001F00302D8F846
:1054A00028309A4224D1C1F30511D8F82C2091421A
:1054B0001ED10146D8F830206FF35F21013A9142A6
:1054C00016D1C0F34622D8F8341001398A420FD1E0
:1054D000C0F30642D8F8381001398A4208D1C0F327
:1054E0000660D8F83C100139884201D100273DE020
:1054F00001273BE0D8F814000028706F3AD040F044
:1055000001007067FEF7C0F8054600BF706F8007A6
:10551000AED4FEF7B9F8401B0228F7D925E0D8F839
:1055200018000028306846D040F480503060FEF704
:10553000ABF80546306880049ED4FEF7A5F8401B02
:105540000228F7D911E0D6F8000440F48070C6F8BC
:105550000004FEF799F80546D6F80004C0051BD4F0
:10556000FEF792F8401B6428F6D90327F8B201B081
:10557000BDE8F08320F001007067FEF785F805466E
:10558000032700BF706F80077FF572AFFEF77CF8CE
:10559000401B0228F6D9E9E7D8F80850306F1DB152
:1055A000052D3CD0012D3ED020F001003067306F3A
:1055B00020F0040039E020F480503060FEF764F8F9
:1055C00005460327306880047FF556AFFEF75CF888
:1055D000401B0228F6D9C9E7306820F0807030609F
:1055E000FEF752F8022C05464FF003070AD100BF20
:1055F0003068800138D5FEF747F8401B0228F7D9FC
:10560000B4E700BF306880017FF570AFFEF73CF86B
:10561000401B0228F6D9A9E701270024BAE640F08A
:1056200004003067306F40F001003067FEF72CF85F
:10563000002D054641F288344FF0030710D000BF1B
:10564000306F80073FF51CAFFEF71EF8401BA042ED
:10565000F6D98BE7FEF718F8401BA0423FF686AF5D
:10566000306F8007F6D40BE708F12807B06A40F2E4
:10567000F33188438ECF0843591E40EA02104FF49D
:105680007E426FF35F21B06202EB47204FF4FE02CF
:1056900080B2D8F83C300844D8F8381002EB014109
:1056A0004FF0FE4201F4FE0102EB0362084402F0F7
:1056B000FE4108443063F06A4FF6F87120F00100B3
:1056C000F062706BD8F84820884340EAC2007063EB
:1056D000F06AD8F8401020F00C000843F062F06A3D
:1056E000D8F8441020F002000843F062F06A40F459
:1056F0008030F062F06A40F40030F062F06A40F40A
:105700008020F062F06A40F00100F062306840F002
:1057100080703060FDF7B8FF0446032730688001D1
:105720003FF5E4AEFDF7B0FF001B0228F6D91DE7F8
:10573000A0B3B0B50446407A20B9002020722046BC
:1057400000F052F802206072D4E90001026822F0F1
:1057500004020260026822F02002114341F08041FD
:10576000016040F6BC21C1F25971016147F2742118
:105770000161016821F080410160FDF785FF054668
:105780002068016849000BD5FDF77EFF401B032808
:10579000F6D3012060720221E160B0BD01207047A4
:1057A000016841F0040101604068400611D4FDF732
:1057B0006BFF05462068406840070ED5FDF764FF83
:1057C000401B0328F6D3042060720220E060012011
:1057D000B0BD042060720120B0BD012060720020C5
:1057E000E060B0BD0000000010B5AEB0044601A8F6
:1057F000B421FAF7D1FD41F600012068C4F6020198
:10580000884201D02EB010BD4FF40030019000202E
:105810001F9001A8FEF750FE08B1FBF71DF944F2F6
:10582000DC40C5F60200016841F0400101600068FB
:1058300000F04000009000982EB010BD0000000065
:1058400070470000000000002DE9F047066804469C
:105850003569D6F814A00AEA0507D6F8088007F0DB
:10586000640094F88190042807D1616F204688472E
:10587000216F20468847012000E0002007F0450105
:10588000012903D1216F20468847012007F0260116
:10589000022903D1616F20468847012008B1BDE885
:1058A000F08738070BD4280763D51AF4006060D05E
:1058B0002068816941F400618161BDE8F08720685A
:1058C00018F4404F816941F008018161816941F01C
:1058D00010018161816941F400618161016921F0F8
:1058E000080101610ED0B9F1040F06D0A16FC9699A
:1058F00041B1B9F1030F00F09D80E16FC969002942
:1059000040F08980806810F4404F1AD0204602F0A1
:105910007BFD012084F88100D4F8840000287AD02F
:105920002046BDE8F047FFF78BBF00BF2068616EDF
:10593000006B41F8040B6166B4F86A000138A4F802
:105940006A00B4F86A000028E0D0E0681028EDD2C0
:10595000082805D3308E616E21F8020BEBE700BFFB
:10596000206890F83000616E0870606E01306066EB
:10597000E2E717F4587F92D0780660D4B8056BD46C
:10598000F80577D4B8060AD52068D4F8841041F019
:105990008001C4F88410816941F020018161D4F84C
:1059A000840000283FF47BAF206808F4404240F2B6
:1059B0006B33B2F5404F016821F0010101600169CC
:1059C00021EA0301016169D1816848F2D14521F4DE
:1059D00040418160E06FC0F6000548B10565FBF706
:1059E00053FB28B1D4F8840040F04000C4F8840090
:1059F000A06F00283FF453AF0565FBF745FB002877
:105A000008BFBDE8F087D4F8840040F04000C4F837
:105A10008400BDE8F087B9F1030F0BD0B9F1040F92
:105A200037D0B9F1050F7FF43AAF2046BDE8F04713
:105A300000F03ABA2046BDE8F04700F02DBA2068E1
:105A4000D4F8841041F00401C4F88410816941F055
:105A500040018161B80593D52068D4F8841041F0E5
:105A60000101C4F88410816941F400718161F80575
:105A70007FF588AF2068D4F8841041F00801C4F89D
:105A80008410816941F480718161B8063FF57CAF73
:105A900085E72046BDE8F04700F03EB9012084F8D4
:105AA00081003DE700000000002800F09C802DE907
:105AB000F04143F600040168C4F2000443F2000E12
:105AC00043F6004CA142C4F2010EC4F2000C4FF0A8
:105AD0000002826204D0614518BF714540F0978092
